{
  "_format": "hh-sol-artifact-1",
  "contractName": "NFTmarketplace",
  "sourceName": "contracts/NftMarket.sol",
  "abi": [
    {
      "inputs": [],
      "stateMutability": "nonpayable",
      "type": "constructor"
    },
    {
      "anonymous": false,
      "inputs": [
        {
          "indexed": true,
          "internalType": "address",
          "name": "owner",
          "type": "address"
        },
        {
          "indexed": true,
          "internalType": "address",
          "name": "approved",
          "type": "address"
        },
        {
          "indexed": true,
          "internalType": "uint256",
          "name": "tokenId",
          "type": "uint256"
        }
      ],
      "name": "Approval",
      "type": "event"
    },
    {
      "anonymous": false,
      "inputs": [
        {
          "indexed": true,
          "internalType": "address",
          "name": "owner",
          "type": "address"
        },
        {
          "indexed": true,
          "internalType": "address",
          "name": "operator",
          "type": "address"
        },
        {
          "indexed": false,
          "internalType": "bool",
          "name": "approved",
          "type": "bool"
        }
      ],
      "name": "ApprovalForAll",
      "type": "event"
    },
    {
      "anonymous": false,
      "inputs": [
        {
          "indexed": true,
          "internalType": "address",
          "name": "from",
          "type": "address"
        },
        {
          "indexed": true,
          "internalType": "address",
          "name": "to",
          "type": "address"
        },
        {
          "indexed": false,
          "internalType": "uint256",
          "name": "tokenId",
          "type": "uint256"
        },
        {
          "indexed": false,
          "internalType": "uint256",
          "name": "price",
          "type": "uint256"
        }
      ],
      "name": "Buy",
      "type": "event"
    },
    {
      "anonymous": false,
      "inputs": [
        {
          "indexed": true,
          "internalType": "address",
          "name": "previousAdmin",
          "type": "address"
        },
        {
          "indexed": true,
          "internalType": "address",
          "name": "NewAdmin",
          "type": "address"
        }
      ],
      "name": "LogchangeAdmin",
      "type": "event"
    },
    {
      "anonymous": false,
      "inputs": [
        {
          "indexed": true,
          "internalType": "address",
          "name": "creator",
          "type": "address"
        },
        {
          "indexed": true,
          "internalType": "uint256",
          "name": "tokenId",
          "type": "uint256"
        },
        {
          "indexed": true,
          "internalType": "string",
          "name": "tokenURI",
          "type": "string"
        }
      ],
      "name": "Mint",
      "type": "event"
    },
    {
      "anonymous": false,
      "inputs": [
        {
          "indexed": true,
          "internalType": "address",
          "name": "from",
          "type": "address"
        },
        {
          "indexed": true,
          "internalType": "address",
          "name": "to",
          "type": "address"
        },
        {
          "indexed": true,
          "internalType": "uint256",
          "name": "tokenId",
          "type": "uint256"
        }
      ],
      "name": "Transfer",
      "type": "event"
    },
    {
      "inputs": [],
      "name": "Admin",
      "outputs": [
        {
          "internalType": "address",
          "name": "",
          "type": "address"
        }
      ],
      "stateMutability": "view",
      "type": "function"
    },
    {
      "inputs": [
        {
          "internalType": "uint256",
          "name": "tokenId",
          "type": "uint256"
        }
      ],
      "name": "GetCreatorOfNft",
      "outputs": [
        {
          "internalType": "address",
          "name": "",
          "type": "address"
        }
      ],
      "stateMutability": "view",
      "type": "function"
    },
    {
      "inputs": [],
      "name": "GetCurrentToken",
      "outputs": [
        {
          "internalType": "uint256",
          "name": "",
          "type": "uint256"
        }
      ],
      "stateMutability": "view",
      "type": "function"
    },
    {
      "inputs": [
        {
          "internalType": "uint256",
          "name": "tokenId",
          "type": "uint256"
        }
      ],
      "name": "GetNFTDetails",
      "outputs": [
        {
          "internalType": "address",
          "name": "creator",
          "type": "address"
        },
        {
          "internalType": "address",
          "name": "owner",
          "type": "address"
        },
        {
          "internalType": "uint256",
          "name": "price",
          "type": "uint256"
        },
        {
          "internalType": "string",
          "name": "IpfsHash",
          "type": "string"
        }
      ],
      "stateMutability": "view",
      "type": "function"
    },
    {
      "inputs": [
        {
          "internalType": "uint256",
          "name": "tokenId",
          "type": "uint256"
        }
      ],
      "name": "GetNftPrice",
      "outputs": [
        {
          "internalType": "uint256",
          "name": "",
          "type": "uint256"
        }
      ],
      "stateMutability": "view",
      "type": "function"
    },
    {
      "inputs": [
        {
          "internalType": "uint256",
          "name": "tokenId",
          "type": "uint256"
        }
      ],
      "name": "GetTransactionHistory",
      "outputs": [
        {
          "internalType": "address[]",
          "name": "",
          "type": "address[]"
        }
      ],
      "stateMutability": "view",
      "type": "function"
    },
    {
      "inputs": [
        {
          "internalType": "address",
          "name": "user",
          "type": "address"
        }
      ],
      "name": "MyTotalNft",
      "outputs": [
        {
          "internalType": "uint256",
          "name": "",
          "type": "uint256"
        }
      ],
      "stateMutability": "view",
      "type": "function"
    },
    {
      "inputs": [
        {
          "internalType": "uint256",
          "name": "tokenId",
          "type": "uint256"
        },
        {
          "internalType": "uint256",
          "name": "price",
          "type": "uint256"
        }
      ],
      "name": "UpdateNftPrice",
      "outputs": [],
      "stateMutability": "nonpayable",
      "type": "function"
    },
    {
      "inputs": [
        {
          "internalType": "address",
          "name": "to",
          "type": "address"
        },
        {
          "internalType": "uint256",
          "name": "tokenId",
          "type": "uint256"
        }
      ],
      "name": "approve",
      "outputs": [],
      "stateMutability": "nonpayable",
      "type": "function"
    },
    {
      "inputs": [
        {
          "internalType": "address",
          "name": "owner",
          "type": "address"
        }
      ],
      "name": "balanceOf",
      "outputs": [
        {
          "internalType": "uint256",
          "name": "",
          "type": "uint256"
        }
      ],
      "stateMutability": "view",
      "type": "function"
    },
    {
      "inputs": [
        {
          "internalType": "uint256",
          "name": "tokenId",
          "type": "uint256"
        }
      ],
      "name": "buy",
      "outputs": [],
      "stateMutability": "payable",
      "type": "function"
    },
    {
      "inputs": [
        {
          "internalType": "address",
          "name": "_newadmin",
          "type": "address"
        }
      ],
      "name": "changeAdmin",
      "outputs": [],
      "stateMutability": "nonpayable",
      "type": "function"
    },
    {
      "inputs": [
        {
          "internalType": "string",
          "name": "tokenURI",
          "type": "string"
        },
        {
          "internalType": "uint256",
          "name": "price",
          "type": "uint256"
        },
        {
          "internalType": "uint8",
          "name": "royalityfee",
          "type": "uint8"
        }
      ],
      "name": "creatToken",
      "outputs": [
        {
          "internalType": "uint256",
          "name": "",
          "type": "uint256"
        }
      ],
      "stateMutability": "nonpayable",
      "type": "function"
    },
    {
      "inputs": [
        {
          "internalType": "uint256",
          "name": "tokenId",
          "type": "uint256"
        }
      ],
      "name": "getApproved",
      "outputs": [
        {
          "internalType": "address",
          "name": "",
          "type": "address"
        }
      ],
      "stateMutability": "view",
      "type": "function"
    },
    {
      "inputs": [
        {
          "internalType": "uint256",
          "name": "tokenId",
          "type": "uint256"
        }
      ],
      "name": "getRoyalityFee",
      "outputs": [
        {
          "internalType": "uint8",
          "name": "",
          "type": "uint8"
        }
      ],
      "stateMutability": "view",
      "type": "function"
    },
    {
      "inputs": [
        {
          "internalType": "address",
          "name": "owner",
          "type": "address"
        },
        {
          "internalType": "address",
          "name": "operator",
          "type": "address"
        }
      ],
      "name": "isApprovedForAll",
      "outputs": [
        {
          "internalType": "bool",
          "name": "",
          "type": "bool"
        }
      ],
      "stateMutability": "view",
      "type": "function"
    },
    {
      "inputs": [],
      "name": "name",
      "outputs": [
        {
          "internalType": "string",
          "name": "",
          "type": "string"
        }
      ],
      "stateMutability": "view",
      "type": "function"
    },
    {
      "inputs": [
        {
          "internalType": "uint256",
          "name": "tokenId",
          "type": "uint256"
        }
      ],
      "name": "ownerOf",
      "outputs": [
        {
          "internalType": "address",
          "name": "",
          "type": "address"
        }
      ],
      "stateMutability": "view",
      "type": "function"
    },
    {
      "inputs": [
        {
          "internalType": "address",
          "name": "from",
          "type": "address"
        },
        {
          "internalType": "address",
          "name": "to",
          "type": "address"
        },
        {
          "internalType": "uint256",
          "name": "tokenId",
          "type": "uint256"
        }
      ],
      "name": "safeTransferFrom",
      "outputs": [],
      "stateMutability": "nonpayable",
      "type": "function"
    },
    {
      "inputs": [
        {
          "internalType": "address",
          "name": "from",
          "type": "address"
        },
        {
          "internalType": "address",
          "name": "to",
          "type": "address"
        },
        {
          "internalType": "uint256",
          "name": "tokenId",
          "type": "uint256"
        },
        {
          "internalType": "bytes",
          "name": "data",
          "type": "bytes"
        }
      ],
      "name": "safeTransferFrom",
      "outputs": [],
      "stateMutability": "nonpayable",
      "type": "function"
    },
    {
      "inputs": [
        {
          "internalType": "address",
          "name": "operator",
          "type": "address"
        },
        {
          "internalType": "bool",
          "name": "approved",
          "type": "bool"
        }
      ],
      "name": "setApprovalForAll",
      "outputs": [],
      "stateMutability": "nonpayable",
      "type": "function"
    },
    {
      "inputs": [
        {
          "internalType": "bytes4",
          "name": "interfaceId",
          "type": "bytes4"
        }
      ],
      "name": "supportsInterface",
      "outputs": [
        {
          "internalType": "bool",
          "name": "",
          "type": "bool"
        }
      ],
      "stateMutability": "view",
      "type": "function"
    },
    {
      "inputs": [],
      "name": "symbol",
      "outputs": [
        {
          "internalType": "string",
          "name": "",
          "type": "string"
        }
      ],
      "stateMutability": "view",
      "type": "function"
    },
    {
      "inputs": [
        {
          "internalType": "uint256",
          "name": "tokenId",
          "type": "uint256"
        }
      ],
      "name": "tokenURI",
      "outputs": [
        {
          "internalType": "string",
          "name": "",
          "type": "string"
        }
      ],
      "stateMutability": "view",
      "type": "function"
    },
    {
      "inputs": [
        {
          "internalType": "address",
          "name": "from",
          "type": "address"
        },
        {
          "internalType": "address",
          "name": "to",
          "type": "address"
        },
        {
          "internalType": "uint256",
          "name": "tokenId",
          "type": "uint256"
        }
      ],
      "name": "transferFrom",
      "outputs": [],
      "stateMutability": "nonpayable",
      "type": "function"
    },
    {
      "inputs": [],
      "name": "withdraw",
      "outputs": [],
      "stateMutability": "nonpayable",
      "type": "function"
    }
  ],
  "bytecode": "0x60a06040523480156200001157600080fd5b506040518060400160405280600881526020017f4e617066746465760000000000000000000000000000000000000000000000008152506040518060400160405280600581526020017f4e415046540000000000000000000000000000000000000000000000000000008152508160009080519060200190620000969291906200016e565b508060019080519060200190620000af9291906200016e565b5050503373ffffffffffffffffffffffffffffffffffffffff1660808173ffffffffffffffffffffffffffffffffffffffff168152505033600860006101000a81548173ffffffffffffffffffffffffffffffffffffffff021916908373ffffffffffffffffffffffffffffffffffffffff16021790555033600960006101000a81548173ffffffffffffffffffffffffffffffffffffffff021916908373ffffffffffffffffffffffffffffffffffffffff16021790555062000283565b8280546200017c906200024d565b90600052602060002090601f016020900481019282620001a05760008555620001ec565b82601f10620001bb57805160ff1916838001178555620001ec565b82800160010185558215620001ec579182015b82811115620001eb578251825591602001919060010190620001ce565b5b509050620001fb9190620001ff565b5090565b5b808211156200021a57600081600090555060010162000200565b5090565b7f4e487b7100000000000000000000000000000000000000000000000000000000600052602260045260246000fd5b600060028204905060018216806200026657607f821691505b602082108114156200027d576200027c6200021e565b5b50919050565b60805161433a6200029f6000396000610db9015261433a6000f3fe6080604052600436106101815760003560e01c80638d610c67116100d1578063bd46a6431161008a578063e9406b3411610064578063e9406b34146105be578063e985e9c5146105fb578063fd12f78914610638578063ff1b636d1461067557610181565b8063bd46a64314610528578063c87b56dd14610565578063d96a094a146105a257610181565b80638d610c671461041a5780638f2839701461044557806395d89b411461046e578063a22cb46514610499578063b5ce14a4146104c2578063b88d4fde146104ff57610181565b8063300929eb1161013e5780634414b5a2116101185780634414b5a21461033a5780636352211e146103635780636e2a10d3146103a057806370a08231146103dd57610181565b8063300929eb146102bd5780633ccfd60b146102fa57806342842e0e1461031157610181565b806301ffc9a71461018657806306fdde03146101c3578063081812fc146101ee578063095ea7b31461022b5780632293922f1461025457806323b872dd14610294575b600080fd5b34801561019257600080fd5b506101ad60048036038101906101a89190612b47565b6106a0565b6040516101ba9190612b8f565b60405180910390f35b3480156101cf57600080fd5b506101d8610782565b6040516101e59190612c43565b60405180910390f35b3480156101fa57600080fd5b5061021560048036038101906102109190612c9b565b610814565b6040516102229190612d09565b60405180910390f35b34801561023757600080fd5b50610252600480360381019061024d9190612d50565b61085a565b005b34801561026057600080fd5b5061027b60048036038101906102769190612c9b565b610972565b60405161028b9493929190612d9f565b60405180910390f35b3480156102a057600080fd5b506102bb60048036038101906102b69190612deb565b6109ff565b005b3480156102c957600080fd5b506102e460048036038101906102df9190612c9b565b610a5f565b6040516102f19190612e5a565b60405180910390f35b34801561030657600080fd5b5061030f610a89565b005b34801561031d57600080fd5b5061033860048036038101906103339190612deb565b610b62565b005b34801561034657600080fd5b50610361600480360381019061035c9190612e75565b610b82565b005b34801561036f57600080fd5b5061038a60048036038101906103859190612c9b565b610c14565b6040516103979190612d09565b60405180910390f35b3480156103ac57600080fd5b506103c760048036038101906103c29190612c9b565b610c9b565b6040516103d49190612d09565b60405180910390f35b3480156103e957600080fd5b5061040460048036038101906103ff9190612eb5565b610cf5565b6040516104119190612ee2565b60405180910390f35b34801561042657600080fd5b5061042f610dad565b60405161043c9190612ee2565b60405180910390f35b34801561045157600080fd5b5061046c60048036038101906104679190612eb5565b610db7565b005b34801561047a57600080fd5b50610483610f8a565b6040516104909190612c43565b60405180910390f35b3480156104a557600080fd5b506104c060048036038101906104bb9190612f29565b61101c565b005b3480156104ce57600080fd5b506104e960048036038101906104e49190612c9b565b611032565b6040516104f69190613027565b60405180910390f35b34801561050b57600080fd5b506105266004803603810190610521919061317e565b6110d3565b005b34801561053457600080fd5b5061054f600480360381019061054a91906132ce565b611135565b60405161055c9190612ee2565b60405180910390f35b34801561057157600080fd5b5061058c60048036038101906105879190612c9b565b611338565b6040516105999190612c43565b60405180910390f35b6105bc60048036038101906105b79190612c9b565b61144b565b005b3480156105ca57600080fd5b506105e560048036038101906105e09190612c9b565b611906565b6040516105f29190612ee2565b60405180910390f35b34801561060757600080fd5b50610622600480360381019061061d919061333d565b611923565b60405161062f9190612b8f565b60405180910390f35b34801561064457600080fd5b5061065f600480360381019061065a9190612eb5565b6119b7565b60405161066c9190612ee2565b60405180910390f35b34801561068157600080fd5b5061068a611a3a565b6040516106979190612d09565b60405180910390f35b60007f80ac58cd000000000000000000000000000000000000000000000000000000007bffffffffffffffffffffffffffffffffffffffffffffffffffffffff1916827bffffffffffffffffffffffffffffffffffffffffffffffffffffffff1916148061076b57507f5b5e139f000000000000000000000000000000000000000000000000000000007bffffffffffffffffffffffffffffffffffffffffffffffffffffffff1916827bffffffffffffffffffffffffffffffffffffffffffffffffffffffff1916145b8061077b575061077a82611a60565b5b9050919050565b606060008054610791906133ac565b80601f01602080910402602001604051908101604052809291908181526020018280546107bd906133ac565b801561080a5780601f106107df5761010080835404028352916020019161080a565b820191906000526020600020905b8154815290600101906020018083116107ed57829003601f168201915b5050505050905090565b600061081f82611aca565b6004600083815260200190815260200160002060009054906101000a900473ffffffffffffffffffffffffffffffffffffffff169050919050565b600061086582610c14565b90508073ffffffffffffffffffffffffffffffffffffffff168373ffffffffffffffffffffffffffffffffffffffff1614156108d6576040517f08c379a00000000000000000000000000000000000000000000000000000000081526004016108cd90613450565b60405180910390fd5b8073ffffffffffffffffffffffffffffffffffffffff166108f5611b15565b73ffffffffffffffffffffffffffffffffffffffff16148061092457506109238161091e611b15565b611923565b5b610963576040517f08c379a000000000000000000000000000000000000000000000000000000000815260040161095a906134e2565b60405180910390fd5b61096d8383611b1d565b505050565b60008060006060600c600086815260200190815260200160002060008154811061099f5761099e613502565b5b9060005260206000200160009054906101000a900473ffffffffffffffffffffffffffffffffffffffff1693506109d585610c14565b9250600a60008681526020019081526020016000205491506109f685611338565b90509193509193565b610a10610a0a611b15565b82611bd6565b610a4f576040517f08c379a0000000000000000000000000000000000000000000000000000000008152600401610a46906135a3565b60405180910390fd5b610a5a838383611c6b565b505050565b6000600b600083815260200190815260200160002060009054906101000a900460ff169050919050565b600860009054906101000a900473ffffffffffffffffffffffffffffffffffffffff1673ffffffffffffffffffffffffffffffffffffffff163373ffffffffffffffffffffffffffffffffffffffff1614610b19576040517f08c379a0000000000000000000000000000000000000000000000000000000008152600401610b109061360f565b60405180910390fd5b3373ffffffffffffffffffffffffffffffffffffffff166108fc479081150290604051600060405180830381858888f19350505050158015610b5f573d6000803e3d6000fd5b50565b610b7d838383604051806020016040528060008152506110d3565b505050565b610b8b82610c14565b73ffffffffffffffffffffffffffffffffffffffff163373ffffffffffffffffffffffffffffffffffffffff1614610bf8576040517f08c379a0000000000000000000000000000000000000000000000000000000008152600401610bef9061367b565b60405180910390fd5b80600a6000848152602001908152602001600020819055505050565b600080610c2083611f65565b9050600073ffffffffffffffffffffffffffffffffffffffff168173ffffffffffffffffffffffffffffffffffffffff161415610c92576040517f08c379a0000000000000000000000000000000000000000000000000000000008152600401610c89906136e7565b60405180910390fd5b80915050919050565b6000600c6000838152602001908152602001600020600081548110610cc357610cc2613502565b5b9060005260206000200160009054906101000a900473ffffffffffffffffffffffffffffffffffffffff169050919050565b60008073ffffffffffffffffffffffffffffffffffffffff168273ffffffffffffffffffffffffffffffffffffffff161415610d66576040517f08c379a0000000000000000000000000000000000000000000000000000000008152600401610d5d90613779565b60405180910390fd5b600360008373ffffffffffffffffffffffffffffffffffffffff1673ffffffffffffffffffffffffffffffffffffffff168152602001908152602001600020549050919050565b6000600754905090565b7f000000000000000000000000000000000000000000000000000000000000000073ffffffffffffffffffffffffffffffffffffffff163373ffffffffffffffffffffffffffffffffffffffff1614610e45576040517f08c379a0000000000000000000000000000000000000000000000000000000008152600401610e3c906137e5565b60405180910390fd5b600860009054906101000a900473ffffffffffffffffffffffffffffffffffffffff16600960006101000a81548173ffffffffffffffffffffffffffffffffffffffff021916908373ffffffffffffffffffffffffffffffffffffffff16021790555080600860006101000a81548173ffffffffffffffffffffffffffffffffffffffff021916908373ffffffffffffffffffffffffffffffffffffffff160217905550600860009054906101000a900473ffffffffffffffffffffffffffffffffffffffff1673ffffffffffffffffffffffffffffffffffffffff16600960009054906101000a900473ffffffffffffffffffffffffffffffffffffffff1673ffffffffffffffffffffffffffffffffffffffff167f02b04f3f0d5c6a1bd2508833ba315c5518fe94bd359b25e201e5bd6d804b4b0960405160405180910390a350565b606060018054610f99906133ac565b80601f0160208091040260200160405190810160405280929190818152602001828054610fc5906133ac565b80156110125780601f10610fe757610100808354040283529160200191611012565b820191906000526020600020905b815481529060010190602001808311610ff557829003601f168201915b5050505050905090565b61102e611027611b15565b8383611fa2565b5050565b6060600c60008381526020019081526020016000208054806020026020016040519081016040528092919081815260200182805480156110c757602002820191906000526020600020905b8160009054906101000a900473ffffffffffffffffffffffffffffffffffffffff1673ffffffffffffffffffffffffffffffffffffffff168152602001906001019080831161107d575b50505050509050919050565b6110e46110de611b15565b83611bd6565b611123576040517f08c379a000000000000000000000000000000000000000000000000000000000815260040161111a906135a3565b60405180910390fd5b61112f8484848461210f565b50505050565b60003373ffffffffffffffffffffffffffffffffffffffff163273ffffffffffffffffffffffffffffffffffffffff16146111a5576040517f08c379a000000000000000000000000000000000000000000000000000000000815260040161119c90613851565b60405180910390fd5b600083116111e8576040517f08c379a00000000000000000000000000000000000000000000000000000000081526004016111df906138e3565b60405180910390fd5b600760008154809291906111fb90613932565b919050555060006007549050600c6000828152602001908152602001600020339080600181540180825580915050600190039060005260206000200160009091909190916101000a81548173ffffffffffffffffffffffffffffffffffffffff021916908373ffffffffffffffffffffffffffffffffffffffff16021790555083600a60008381526020019081526020016000208190555082600b600083815260200190815260200160002060006101000a81548160ff021916908360ff1602179055506112c9338261216b565b6112d38186612189565b846040516112e191906139b7565b6040518091039020813373ffffffffffffffffffffffffffffffffffffffff167f85a66b9141978db9980f7e0ce3b468cebf4f7999f32b23091c5c03e798b1ba7a60405160405180910390a4809150509392505050565b606061134382611aca565b6000600660008481526020019081526020016000208054611363906133ac565b80601f016020809104026020016040519081016040528092919081815260200182805461138f906133ac565b80156113dc5780601f106113b1576101008083540402835291602001916113dc565b820191906000526020600020905b8154815290600101906020018083116113bf57829003601f168201915b5050505050905060006113ed6121fd565b9050600081511415611403578192505050611446565b6000825111156114385780826040516020016114209291906139ce565b60405160208183030381529060405292505050611446565b61144184612214565b925050505b919050565b3273ffffffffffffffffffffffffffffffffffffffff163373ffffffffffffffffffffffffffffffffffffffff16146114b9576040517f08c379a00000000000000000000000000000000000000000000000000000000081526004016114b090613a3e565b60405180910390fd5b6114c281610c14565b73ffffffffffffffffffffffffffffffffffffffff163373ffffffffffffffffffffffffffffffffffffffff161415611530576040517f08c379a000000000000000000000000000000000000000000000000000000000815260040161152790613aaa565b60405180910390fd5b6000600a6000838152602001908152602001600020549050600061155383610c14565b9050813414611597576040517f08c379a000000000000000000000000000000000000000000000000000000000815260040161158e90613b3c565b60405180910390fd5b600c6000848152602001908152602001600020339080600181540180825580915050600190039060005260206000200160009091909190916101000a81548173ffffffffffffffffffffffffffffffffffffffff021916908373ffffffffffffffffffffffffffffffffffffffff1602179055506000600c600085815260200190815260200160002060008154811061163357611632613502565b5b9060005260206000200160009054906101000a900473ffffffffffffffffffffffffffffffffffffffff16905060006064600b600087815260200190815260200160002060009054906101000a900460ff1660ff16856116939190613b5c565b61169d9190613be5565b9050600060646061866116b09190613b5c565b6116ba9190613be5565b905060008473ffffffffffffffffffffffffffffffffffffffff16826040516116e290613c47565b60006040518083038185875af1925050503d806000811461171f576040519150601f19603f3d011682016040523d82523d6000602084013e611724565b606091505b5050905080611768576040517f08c379a000000000000000000000000000000000000000000000000000000000815260040161175f90613ca8565b60405180910390fd5b60008473ffffffffffffffffffffffffffffffffffffffff168460405161178e90613c47565b60006040518083038185875af1925050503d80600081146117cb576040519150601f19603f3d011682016040523d82523d6000602084013e6117d0565b606091505b5050905080611814576040517f08c379a000000000000000000000000000000000000000000000000000000000815260040161180b90613d14565b60405180910390fd5b61181f86338a611c6b565b3373ffffffffffffffffffffffffffffffffffffffff1661183f89610c14565b73ffffffffffffffffffffffffffffffffffffffff1614611895576040517f08c379a000000000000000000000000000000000000000000000000000000000815260040161188c90613d80565b60405180910390fd5b3373ffffffffffffffffffffffffffffffffffffffff168673ffffffffffffffffffffffffffffffffffffffff167f89f5adc174562e07c9c9b1cae7109bbecb21cf9d1b2847e550042b8653c54a0e8a8a6040516118f4929190613da0565b60405180910390a35050505050505050565b6000600a6000838152602001908152602001600020549050919050565b6000600560008473ffffffffffffffffffffffffffffffffffffffff1673ffffffffffffffffffffffffffffffffffffffff16815260200190815260200160002060008373ffffffffffffffffffffffffffffffffffffffff1673ffffffffffffffffffffffffffffffffffffffff16815260200190815260200160002060009054906101000a900460ff16905092915050565b60003073ffffffffffffffffffffffffffffffffffffffff166370a08231836040518263ffffffff1660e01b81526004016119f29190612d09565b602060405180830381865afa158015611a0f573d6000803e3d6000fd5b505050506040513d601f19601f82011682018060405250810190611a339190613dde565b9050919050565b600860009054906101000a900473ffffffffffffffffffffffffffffffffffffffff1681565b60007f01ffc9a7000000000000000000000000000000000000000000000000000000007bffffffffffffffffffffffffffffffffffffffffffffffffffffffff1916827bffffffffffffffffffffffffffffffffffffffffffffffffffffffff1916149050919050565b611ad38161227c565b611b12576040517f08c379a0000000000000000000000000000000000000000000000000000000008152600401611b09906136e7565b60405180910390fd5b50565b600033905090565b816004600083815260200190815260200160002060006101000a81548173ffffffffffffffffffffffffffffffffffffffff021916908373ffffffffffffffffffffffffffffffffffffffff160217905550808273ffffffffffffffffffffffffffffffffffffffff16611b9083610c14565b73ffffffffffffffffffffffffffffffffffffffff167f8c5be1e5ebec7d5bd14f71427d1e84f3dd0314c0f7b2291e5b200ac8c7c3b92560405160405180910390a45050565b600080611be283610c14565b90508073ffffffffffffffffffffffffffffffffffffffff168473ffffffffffffffffffffffffffffffffffffffff161480611c245750611c238185611923565b5b80611c6257508373ffffffffffffffffffffffffffffffffffffffff16611c4a84610814565b73ffffffffffffffffffffffffffffffffffffffff16145b91505092915050565b8273ffffffffffffffffffffffffffffffffffffffff16611c8b82610c14565b73ffffffffffffffffffffffffffffffffffffffff1614611ce1576040517f08c379a0000000000000000000000000000000000000000000000000000000008152600401611cd890613e7d565b60405180910390fd5b600073ffffffffffffffffffffffffffffffffffffffff168273ffffffffffffffffffffffffffffffffffffffff161415611d51576040517f08c379a0000000000000000000000000000000000000000000000000000000008152600401611d4890613f0f565b60405180910390fd5b611d5e83838360016122bd565b8273ffffffffffffffffffffffffffffffffffffffff16611d7e82610c14565b73ffffffffffffffffffffffffffffffffffffffff1614611dd4576040517f08c379a0000000000000000000000000000000000000000000000000000000008152600401611dcb90613e7d565b60405180910390fd5b6004600082815260200190815260200160002060006101000a81549073ffffffffffffffffffffffffffffffffffffffff02191690556001600360008573ffffffffffffffffffffffffffffffffffffffff1673ffffffffffffffffffffffffffffffffffffffff168152602001908152602001600020600082825403925050819055506001600360008473ffffffffffffffffffffffffffffffffffffffff1673ffffffffffffffffffffffffffffffffffffffff16815260200190815260200160002060008282540192505081905550816002600083815260200190815260200160002060006101000a81548173ffffffffffffffffffffffffffffffffffffffff021916908373ffffffffffffffffffffffffffffffffffffffff160217905550808273ffffffffffffffffffffffffffffffffffffffff168473ffffffffffffffffffffffffffffffffffffffff167fddf252ad1be2c89b69c2b068fc378daa952ba7f163c4a11628f55a4df523b3ef60405160405180910390a4611f6083838360016123e3565b505050565b60006002600083815260200190815260200160002060009054906101000a900473ffffffffffffffffffffffffffffffffffffffff169050919050565b8173ffffffffffffffffffffffffffffffffffffffff168373ffffffffffffffffffffffffffffffffffffffff161415612011576040517f08c379a000000000000000000000000000000000000000000000000000000000815260040161200890613f7b565b60405180910390fd5b80600560008573ffffffffffffffffffffffffffffffffffffffff1673ffffffffffffffffffffffffffffffffffffffff16815260200190815260200160002060008473ffffffffffffffffffffffffffffffffffffffff1673ffffffffffffffffffffffffffffffffffffffff16815260200190815260200160002060006101000a81548160ff0219169083151502179055508173ffffffffffffffffffffffffffffffffffffffff168373ffffffffffffffffffffffffffffffffffffffff167f17307eab39ab6107e8899845ad3d59bd9653f200f220920489ca2b5937696c31836040516121029190612b8f565b60405180910390a3505050565b61211a848484611c6b565b612126848484846123e9565b612165576040517f08c379a000000000000000000000000000000000000000000000000000000000815260040161215c9061400d565b60405180910390fd5b50505050565b612185828260405180602001604052806000815250612571565b5050565b6121928261227c565b6121d1576040517f08c379a00000000000000000000000000000000000000000000000000000000081526004016121c89061409f565b60405180910390fd5b806006600084815260200190815260200160002090805190602001906121f8929190612a38565b505050565b606060405180602001604052806000815250905090565b606061221f82611aca565b60006122296121fd565b905060008151116122495760405180602001604052806000815250612274565b80612253846125cc565b6040516020016122649291906139ce565b6040516020818303038152906040525b915050919050565b60008073ffffffffffffffffffffffffffffffffffffffff1661229e83611f65565b73ffffffffffffffffffffffffffffffffffffffff1614159050919050565b60018111156123dd57600073ffffffffffffffffffffffffffffffffffffffff168473ffffffffffffffffffffffffffffffffffffffff16146123515780600360008673ffffffffffffffffffffffffffffffffffffffff1673ffffffffffffffffffffffffffffffffffffffff168152602001908152602001600020600082825461234991906140bf565b925050819055505b600073ffffffffffffffffffffffffffffffffffffffff168373ffffffffffffffffffffffffffffffffffffffff16146123dc5780600360008573ffffffffffffffffffffffffffffffffffffffff1673ffffffffffffffffffffffffffffffffffffffff16815260200190815260200160002060008282546123d491906140f3565b925050819055505b5b50505050565b50505050565b600061240a8473ffffffffffffffffffffffffffffffffffffffff166126a4565b15612564578373ffffffffffffffffffffffffffffffffffffffff1663150b7a02612433611b15565b8786866040518563ffffffff1660e01b8152600401612455949392919061419e565b6020604051808303816000875af192505050801561249157506040513d601f19601f8201168201806040525081019061248e91906141ff565b60015b612514573d80600081146124c1576040519150601f19603f3d011682016040523d82523d6000602084013e6124c6565b606091505b5060008151141561250c576040517f08c379a00000000000000000000000000000000000000000000000000000000081526004016125039061400d565b60405180910390fd5b805181602001fd5b63150b7a0260e01b7bffffffffffffffffffffffffffffffffffffffffffffffffffffffff1916817bffffffffffffffffffffffffffffffffffffffffffffffffffffffff191614915050612569565b600190505b949350505050565b61257b83836126c7565b61258860008484846123e9565b6125c7576040517f08c379a00000000000000000000000000000000000000000000000000000000081526004016125be9061400d565b60405180910390fd5b505050565b6060600060016125db846128e5565b01905060008167ffffffffffffffff8111156125fa576125f9613053565b5b6040519080825280601f01601f19166020018201604052801561262c5781602001600182028036833780820191505090505b509050600082602001820190505b600115612699578080600190039150507f3031323334353637383961626364656600000000000000000000000000000000600a86061a8153600a858161268357612682613bb6565b5b049450600085141561269457612699565b61263a565b819350505050919050565b6000808273ffffffffffffffffffffffffffffffffffffffff163b119050919050565b600073ffffffffffffffffffffffffffffffffffffffff168273ffffffffffffffffffffffffffffffffffffffff161415612737576040517f08c379a000000000000000000000000000000000000000000000000000000000815260040161272e90614278565b60405180910390fd5b6127408161227c565b15612780576040517f08c379a0000000000000000000000000000000000000000000000000000000008152600401612777906142e4565b60405180910390fd5b61278e6000838360016122bd565b6127978161227c565b156127d7576040517f08c379a00000000000000000000000000000000000000000000000000000000081526004016127ce906142e4565b60405180910390fd5b6001600360008473ffffffffffffffffffffffffffffffffffffffff1673ffffffffffffffffffffffffffffffffffffffff16815260200190815260200160002060008282540192505081905550816002600083815260200190815260200160002060006101000a81548173ffffffffffffffffffffffffffffffffffffffff021916908373ffffffffffffffffffffffffffffffffffffffff160217905550808273ffffffffffffffffffffffffffffffffffffffff16600073ffffffffffffffffffffffffffffffffffffffff167fddf252ad1be2c89b69c2b068fc378daa952ba7f163c4a11628f55a4df523b3ef60405160405180910390a46128e16000838360016123e3565b5050565b600080600090507a184f03e93ff9f4daa797ed6e38ed64bf6a1f0100000000000000008310612943577a184f03e93ff9f4daa797ed6e38ed64bf6a1f010000000000000000838161293957612938613bb6565b5b0492506040810190505b6d04ee2d6d415b85acef81000000008310612980576d04ee2d6d415b85acef8100000000838161297657612975613bb6565b5b0492506020810190505b662386f26fc1000083106129af57662386f26fc1000083816129a5576129a4613bb6565b5b0492506010810190505b6305f5e10083106129d8576305f5e10083816129ce576129cd613bb6565b5b0492506008810190505b61271083106129fd5761271083816129f3576129f2613bb6565b5b0492506004810190505b60648310612a205760648381612a1657612a15613bb6565b5b0492506002810190505b600a8310612a2f576001810190505b80915050919050565b828054612a44906133ac565b90600052602060002090601f016020900481019282612a665760008555612aad565b82601f10612a7f57805160ff1916838001178555612aad565b82800160010185558215612aad579182015b82811115612aac578251825591602001919060010190612a91565b5b509050612aba9190612abe565b5090565b5b80821115612ad7576000816000905550600101612abf565b5090565b6000604051905090565b600080fd5b600080fd5b60007fffffffff0000000000000000000000000000000000000000000000000000000082169050919050565b612b2481612aef565b8114612b2f57600080fd5b50565b600081359050612b4181612b1b565b92915050565b600060208284031215612b5d57612b5c612ae5565b5b6000612b6b84828501612b32565b91505092915050565b60008115159050919050565b612b8981612b74565b82525050565b6000602082019050612ba46000830184612b80565b92915050565b600081519050919050565b600082825260208201905092915050565b60005b83811015612be4578082015181840152602081019050612bc9565b83811115612bf3576000848401525b50505050565b6000601f19601f8301169050919050565b6000612c1582612baa565b612c1f8185612bb5565b9350612c2f818560208601612bc6565b612c3881612bf9565b840191505092915050565b60006020820190508181036000830152612c5d8184612c0a565b905092915050565b6000819050919050565b612c7881612c65565b8114612c8357600080fd5b50565b600081359050612c9581612c6f565b92915050565b600060208284031215612cb157612cb0612ae5565b5b6000612cbf84828501612c86565b91505092915050565b600073ffffffffffffffffffffffffffffffffffffffff82169050919050565b6000612cf382612cc8565b9050919050565b612d0381612ce8565b82525050565b6000602082019050612d1e6000830184612cfa565b92915050565b612d2d81612ce8565b8114612d3857600080fd5b50565b600081359050612d4a81612d24565b92915050565b60008060408385031215612d6757612d66612ae5565b5b6000612d7585828601612d3b565b9250506020612d8685828601612c86565b9150509250929050565b612d9981612c65565b82525050565b6000608082019050612db46000830187612cfa565b612dc16020830186612cfa565b612dce6040830185612d90565b8181036060830152612de08184612c0a565b905095945050505050565b600080600060608486031215612e0457612e03612ae5565b5b6000612e1286828701612d3b565b9350506020612e2386828701612d3b565b9250506040612e3486828701612c86565b9150509250925092565b600060ff82169050919050565b612e5481612e3e565b82525050565b6000602082019050612e6f6000830184612e4b565b92915050565b60008060408385031215612e8c57612e8b612ae5565b5b6000612e9a85828601612c86565b9250506020612eab85828601612c86565b9150509250929050565b600060208284031215612ecb57612eca612ae5565b5b6000612ed984828501612d3b565b91505092915050565b6000602082019050612ef76000830184612d90565b92915050565b612f0681612b74565b8114612f1157600080fd5b50565b600081359050612f2381612efd565b92915050565b60008060408385031215612f4057612f3f612ae5565b5b6000612f4e85828601612d3b565b9250506020612f5f85828601612f14565b9150509250929050565b600081519050919050565b600082825260208201905092915050565b6000819050602082019050919050565b612f9e81612ce8565b82525050565b6000612fb08383612f95565b60208301905092915050565b6000602082019050919050565b6000612fd482612f69565b612fde8185612f74565b9350612fe983612f85565b8060005b8381101561301a5781516130018882612fa4565b975061300c83612fbc565b925050600181019050612fed565b5085935050505092915050565b600060208201905081810360008301526130418184612fc9565b905092915050565b600080fd5b600080fd5b7f4e487b7100000000000000000000000000000000000000000000000000000000600052604160045260246000fd5b61308b82612bf9565b810181811067ffffffffffffffff821117156130aa576130a9613053565b5b80604052505050565b60006130bd612adb565b90506130c98282613082565b919050565b600067ffffffffffffffff8211156130e9576130e8613053565b5b6130f282612bf9565b9050602081019050919050565b82818337600083830152505050565b600061312161311c846130ce565b6130b3565b90508281526020810184848401111561313d5761313c61304e565b5b6131488482856130ff565b509392505050565b600082601f83011261316557613164613049565b5b813561317584826020860161310e565b91505092915050565b6000806000806080858703121561319857613197612ae5565b5b60006131a687828801612d3b565b94505060206131b787828801612d3b565b93505060406131c887828801612c86565b925050606085013567ffffffffffffffff8111156131e9576131e8612aea565b5b6131f587828801613150565b91505092959194509250565b600067ffffffffffffffff82111561321c5761321b613053565b5b61322582612bf9565b9050602081019050919050565b600061324561324084613201565b6130b3565b9050828152602081018484840111156132615761326061304e565b5b61326c8482856130ff565b509392505050565b600082601f83011261328957613288613049565b5b8135613299848260208601613232565b91505092915050565b6132ab81612e3e565b81146132b657600080fd5b50565b6000813590506132c8816132a2565b92915050565b6000806000606084860312156132e7576132e6612ae5565b5b600084013567ffffffffffffffff81111561330557613304612aea565b5b61331186828701613274565b935050602061332286828701612c86565b9250506040613333868287016132b9565b9150509250925092565b6000806040838503121561335457613353612ae5565b5b600061336285828601612d3b565b925050602061337385828601612d3b565b9150509250929050565b7f4e487b7100000000000000000000000000000000000000000000000000000000600052602260045260246000fd5b600060028204905060018216806133c457607f821691505b602082108114156133d8576133d761337d565b5b50919050565b7f4552433732313a20617070726f76616c20746f2063757272656e74206f776e6560008201527f7200000000000000000000000000000000000000000000000000000000000000602082015250565b600061343a602183612bb5565b9150613445826133de565b604082019050919050565b600060208201905081810360008301526134698161342d565b9050919050565b7f4552433732313a20617070726f76652063616c6c6572206973206e6f7420746f60008201527f6b656e206f776e6572206f7220617070726f76656420666f7220616c6c000000602082015250565b60006134cc603d83612bb5565b91506134d782613470565b604082019050919050565b600060208201905081810360008301526134fb816134bf565b9050919050565b7f4e487b7100000000000000000000000000000000000000000000000000000000600052603260045260246000fd5b7f4552433732313a2063616c6c6572206973206e6f7420746f6b656e206f776e6560008201527f72206f7220617070726f76656400000000000000000000000000000000000000602082015250565b600061358d602d83612bb5565b915061359882613531565b604082019050919050565b600060208201905081810360008301526135bc81613580565b9050919050565b7f41646d696e20756e617574686f72697a65640000000000000000000000000000600082015250565b60006135f9601283612bb5565b9150613604826135c3565b602082019050919050565b60006020820190508181036000830152613628816135ec565b9050919050565b7f4f776e657220556e617574686f72697365640000000000000000000000000000600082015250565b6000613665601283612bb5565b91506136708261362f565b602082019050919050565b6000602082019050818103600083015261369481613658565b9050919050565b7f4552433732313a20696e76616c696420746f6b656e2049440000000000000000600082015250565b60006136d1601883612bb5565b91506136dc8261369b565b602082019050919050565b60006020820190508181036000830152613700816136c4565b9050919050565b7f4552433732313a2061646472657373207a65726f206973206e6f74206120766160008201527f6c6964206f776e65720000000000000000000000000000000000000000000000602082015250565b6000613763602983612bb5565b915061376e82613707565b604082019050919050565b6000602082019050818103600083015261379281613756565b9050919050565b7f6f776e657220756e617574686f72697a65640000000000000000000000000000600082015250565b60006137cf601283612bb5565b91506137da82613799565b602082019050919050565b600060208201905081810360008301526137fe816137c2565b9050919050565b7f6f6e6c7920627920454f412063616e206d696e74204e46540000000000000000600082015250565b600061383b601883612bb5565b915061384682613805565b602082019050919050565b6000602082019050818103600083015261386a8161382e565b9050919050565b7f73686f756c6420626520736f6d652076616c7561626c65207072696365206f6660008201527f206e667400000000000000000000000000000000000000000000000000000000602082015250565b60006138cd602483612bb5565b91506138d882613871565b604082019050919050565b600060208201905081810360008301526138fc816138c0565b9050919050565b7f4e487b7100000000000000000000000000000000000000000000000000000000600052601160045260246000fd5b600061393d82612c65565b91507fffffffffffffffffffffffffffffffffffffffffffffffffffffffffffffffff8214156139705761396f613903565b5b600182019050919050565b600081905092915050565b600061399182612baa565b61399b818561397b565b93506139ab818560208601612bc6565b80840191505092915050565b60006139c38284613986565b915081905092915050565b60006139da8285613986565b91506139e68284613986565b91508190509392505050565b7f6f6e6c7920454f412063616e20696e7472656374000000000000000000000000600082015250565b6000613a28601483612bb5565b9150613a33826139f2565b602082019050919050565b60006020820190508181036000830152613a5781613a1b565b9050919050565b7f796f752063616e277420627579206f776e206e66740000000000000000000000600082015250565b6000613a94601583612bb5565b9150613a9f82613a5e565b602082019050919050565b60006020820190508181036000830152613ac381613a87565b9050919050565b7f506c65617365207375626d6974207468652061736b696e67207072696365206960008201527f6e206f7264657220746f20636f6d706c65746520746865207075726368617365602082015250565b6000613b26604083612bb5565b9150613b3182613aca565b604082019050919050565b60006020820190508181036000830152613b5581613b19565b9050919050565b6000613b6782612c65565b9150613b7283612c65565b9250817fffffffffffffffffffffffffffffffffffffffffffffffffffffffffffffffff0483118215151615613bab57613baa613903565b5b828202905092915050565b7f4e487b7100000000000000000000000000000000000000000000000000000000600052601260045260246000fd5b6000613bf082612c65565b9150613bfb83612c65565b925082613c0b57613c0a613bb6565b5b828204905092915050565b600081905092915050565b50565b6000613c31600083613c16565b9150613c3c82613c21565b600082019050919050565b6000613c5282613c24565b9150819050919050565b7f6574686572207472616e73666572206661696c656420746f2073656c6c657200600082015250565b6000613c92601f83612bb5565b9150613c9d82613c5c565b602082019050919050565b60006020820190508181036000830152613cc181613c85565b9050919050565b7f6574686572207472616e73666572206661696c656420746f2063726561746f72600082015250565b6000613cfe602083612bb5565b9150613d0982613cc8565b602082019050919050565b60006020820190508181036000830152613d2d81613cf1565b9050919050565b7f4e4654206e6f74207472616e7366726564000000000000000000000000000000600082015250565b6000613d6a601183612bb5565b9150613d7582613d34565b602082019050919050565b60006020820190508181036000830152613d9981613d5d565b9050919050565b6000604082019050613db56000830185612d90565b613dc26020830184612d90565b9392505050565b600081519050613dd881612c6f565b92915050565b600060208284031215613df457613df3612ae5565b5b6000613e0284828501613dc9565b91505092915050565b7f4552433732313a207472616e736665722066726f6d20696e636f72726563742060008201527f6f776e6572000000000000000000000000000000000000000000000000000000602082015250565b6000613e67602583612bb5565b9150613e7282613e0b565b604082019050919050565b60006020820190508181036000830152613e9681613e5a565b9050919050565b7f4552433732313a207472616e7366657220746f20746865207a65726f2061646460008201527f7265737300000000000000000000000000000000000000000000000000000000602082015250565b6000613ef9602483612bb5565b9150613f0482613e9d565b604082019050919050565b60006020820190508181036000830152613f2881613eec565b9050919050565b7f4552433732313a20617070726f766520746f2063616c6c657200000000000000600082015250565b6000613f65601983612bb5565b9150613f7082613f2f565b602082019050919050565b60006020820190508181036000830152613f9481613f58565b9050919050565b7f4552433732313a207472616e7366657220746f206e6f6e20455243373231526560008201527f63656976657220696d706c656d656e7465720000000000000000000000000000602082015250565b6000613ff7603283612bb5565b915061400282613f9b565b604082019050919050565b6000602082019050818103600083015261402681613fea565b9050919050565b7f45524337323155524953746f726167653a2055524920736574206f66206e6f6e60008201527f6578697374656e7420746f6b656e000000000000000000000000000000000000602082015250565b6000614089602e83612bb5565b91506140948261402d565b604082019050919050565b600060208201905081810360008301526140b88161407c565b9050919050565b60006140ca82612c65565b91506140d583612c65565b9250828210156140e8576140e7613903565b5b828203905092915050565b60006140fe82612c65565b915061410983612c65565b9250827fffffffffffffffffffffffffffffffffffffffffffffffffffffffffffffffff0382111561413e5761413d613903565b5b828201905092915050565b600081519050919050565b600082825260208201905092915050565b600061417082614149565b61417a8185614154565b935061418a818560208601612bc6565b61419381612bf9565b840191505092915050565b60006080820190506141b36000830187612cfa565b6141c06020830186612cfa565b6141cd6040830185612d90565b81810360608301526141df8184614165565b905095945050505050565b6000815190506141f981612b1b565b92915050565b60006020828403121561421557614214612ae5565b5b6000614223848285016141ea565b91505092915050565b7f4552433732313a206d696e7420746f20746865207a65726f2061646472657373600082015250565b6000614262602083612bb5565b915061426d8261422c565b602082019050919050565b6000602082019050818103600083015261429181614255565b9050919050565b7f4552433732313a20746f6b656e20616c7265616479206d696e74656400000000600082015250565b60006142ce601c83612bb5565b91506142d982614298565b602082019050919050565b600060208201905081810360008301526142fd816142c1565b905091905056fea264697066735822122010088eddddc133bb22b98ff7e4e85e977e79b408946c731359f113830d6698f964736f6c634300080a0033",
  "linkReferences": {},
  "deployedLinkReferences": {}
}