{
  "_format": "hh-sol-artifact-1",
  "contractName": "NFTmarketplace",
  "sourceName": "contracts/NftMarket.sol",
  "abi": [
    {
      "inputs": [],
      "stateMutability": "nonpayable",
      "type": "constructor"
    },
    {
      "anonymous": false,
      "inputs": [
        {
          "indexed": true,
          "internalType": "address",
          "name": "owner",
          "type": "address"
        },
        {
          "indexed": true,
          "internalType": "address",
          "name": "approved",
          "type": "address"
        },
        {
          "indexed": true,
          "internalType": "uint256",
          "name": "tokenId",
          "type": "uint256"
        }
      ],
      "name": "Approval",
      "type": "event"
    },
    {
      "anonymous": false,
      "inputs": [
        {
          "indexed": true,
          "internalType": "address",
          "name": "owner",
          "type": "address"
        },
        {
          "indexed": true,
          "internalType": "address",
          "name": "operator",
          "type": "address"
        },
        {
          "indexed": false,
          "internalType": "bool",
          "name": "approved",
          "type": "bool"
        }
      ],
      "name": "ApprovalForAll",
      "type": "event"
    },
    {
      "anonymous": false,
      "inputs": [
        {
          "indexed": true,
          "internalType": "address",
          "name": "from",
          "type": "address"
        },
        {
          "indexed": true,
          "internalType": "address",
          "name": "to",
          "type": "address"
        },
        {
          "indexed": false,
          "internalType": "uint256",
          "name": "tokenId",
          "type": "uint256"
        },
        {
          "indexed": false,
          "internalType": "uint256",
          "name": "price",
          "type": "uint256"
        }
      ],
      "name": "Buy",
      "type": "event"
    },
    {
      "anonymous": false,
      "inputs": [
        {
          "indexed": true,
          "internalType": "address",
          "name": "creator",
          "type": "address"
        },
        {
          "indexed": true,
          "internalType": "uint256",
          "name": "tokenId",
          "type": "uint256"
        },
        {
          "indexed": true,
          "internalType": "string",
          "name": "tokenURI",
          "type": "string"
        }
      ],
      "name": "Mint",
      "type": "event"
    },
    {
      "anonymous": false,
      "inputs": [
        {
          "indexed": true,
          "internalType": "address",
          "name": "from",
          "type": "address"
        },
        {
          "indexed": true,
          "internalType": "address",
          "name": "to",
          "type": "address"
        },
        {
          "indexed": true,
          "internalType": "uint256",
          "name": "tokenId",
          "type": "uint256"
        }
      ],
      "name": "Transfer",
      "type": "event"
    },
    {
      "inputs": [
        {
          "internalType": "uint256",
          "name": "tokenId",
          "type": "uint256"
        }
      ],
      "name": "GetCreatorOfNft",
      "outputs": [
        {
          "internalType": "address",
          "name": "",
          "type": "address"
        }
      ],
      "stateMutability": "view",
      "type": "function"
    },
    {
      "inputs": [],
      "name": "GetCurrentToken",
      "outputs": [
        {
          "internalType": "uint256",
          "name": "",
          "type": "uint256"
        }
      ],
      "stateMutability": "view",
      "type": "function"
    },
    {
      "inputs": [
        {
          "internalType": "uint256",
          "name": "tokenId",
          "type": "uint256"
        }
      ],
      "name": "GetNFTDetails",
      "outputs": [
        {
          "internalType": "address",
          "name": "creator",
          "type": "address"
        },
        {
          "internalType": "address",
          "name": "owner",
          "type": "address"
        },
        {
          "internalType": "uint256",
          "name": "price",
          "type": "uint256"
        }
      ],
      "stateMutability": "view",
      "type": "function"
    },
    {
      "inputs": [
        {
          "internalType": "uint256",
          "name": "tokenId",
          "type": "uint256"
        }
      ],
      "name": "GetNftPrice",
      "outputs": [
        {
          "internalType": "uint256",
          "name": "",
          "type": "uint256"
        }
      ],
      "stateMutability": "view",
      "type": "function"
    },
    {
      "inputs": [
        {
          "internalType": "uint256",
          "name": "tokenId",
          "type": "uint256"
        }
      ],
      "name": "GetTransactionHistory",
      "outputs": [
        {
          "internalType": "address[]",
          "name": "",
          "type": "address[]"
        }
      ],
      "stateMutability": "view",
      "type": "function"
    },
    {
      "inputs": [
        {
          "internalType": "uint256",
          "name": "tokenId",
          "type": "uint256"
        },
        {
          "internalType": "uint256",
          "name": "price",
          "type": "uint256"
        }
      ],
      "name": "UpdateNftPrice",
      "outputs": [],
      "stateMutability": "nonpayable",
      "type": "function"
    },
    {
      "inputs": [
        {
          "internalType": "address",
          "name": "to",
          "type": "address"
        },
        {
          "internalType": "uint256",
          "name": "tokenId",
          "type": "uint256"
        }
      ],
      "name": "approve",
      "outputs": [],
      "stateMutability": "nonpayable",
      "type": "function"
    },
    {
      "inputs": [
        {
          "internalType": "address",
          "name": "owner",
          "type": "address"
        }
      ],
      "name": "balanceOf",
      "outputs": [
        {
          "internalType": "uint256",
          "name": "",
          "type": "uint256"
        }
      ],
      "stateMutability": "view",
      "type": "function"
    },
    {
      "inputs": [
        {
          "internalType": "uint256",
          "name": "tokenId",
          "type": "uint256"
        }
      ],
      "name": "buy",
      "outputs": [],
      "stateMutability": "payable",
      "type": "function"
    },
    {
      "inputs": [
        {
          "internalType": "string",
          "name": "tokenURI",
          "type": "string"
        },
        {
          "internalType": "uint256",
          "name": "price",
          "type": "uint256"
        }
      ],
      "name": "creatToken",
      "outputs": [
        {
          "internalType": "uint256",
          "name": "",
          "type": "uint256"
        }
      ],
      "stateMutability": "payable",
      "type": "function"
    },
    {
      "inputs": [
        {
          "internalType": "uint256",
          "name": "tokenId",
          "type": "uint256"
        }
      ],
      "name": "getApproved",
      "outputs": [
        {
          "internalType": "address",
          "name": "",
          "type": "address"
        }
      ],
      "stateMutability": "view",
      "type": "function"
    },
    {
      "inputs": [],
      "name": "getListPrice",
      "outputs": [
        {
          "internalType": "uint256",
          "name": "",
          "type": "uint256"
        }
      ],
      "stateMutability": "view",
      "type": "function"
    },
    {
      "inputs": [
        {
          "internalType": "address",
          "name": "owner",
          "type": "address"
        },
        {
          "internalType": "address",
          "name": "operator",
          "type": "address"
        }
      ],
      "name": "isApprovedForAll",
      "outputs": [
        {
          "internalType": "bool",
          "name": "",
          "type": "bool"
        }
      ],
      "stateMutability": "view",
      "type": "function"
    },
    {
      "inputs": [],
      "name": "name",
      "outputs": [
        {
          "internalType": "string",
          "name": "",
          "type": "string"
        }
      ],
      "stateMutability": "view",
      "type": "function"
    },
    {
      "inputs": [
        {
          "internalType": "uint256",
          "name": "tokenId",
          "type": "uint256"
        }
      ],
      "name": "ownerOf",
      "outputs": [
        {
          "internalType": "address",
          "name": "",
          "type": "address"
        }
      ],
      "stateMutability": "view",
      "type": "function"
    },
    {
      "inputs": [
        {
          "internalType": "address",
          "name": "from",
          "type": "address"
        },
        {
          "internalType": "address",
          "name": "to",
          "type": "address"
        },
        {
          "internalType": "uint256",
          "name": "tokenId",
          "type": "uint256"
        }
      ],
      "name": "safeTransferFrom",
      "outputs": [],
      "stateMutability": "nonpayable",
      "type": "function"
    },
    {
      "inputs": [
        {
          "internalType": "address",
          "name": "from",
          "type": "address"
        },
        {
          "internalType": "address",
          "name": "to",
          "type": "address"
        },
        {
          "internalType": "uint256",
          "name": "tokenId",
          "type": "uint256"
        },
        {
          "internalType": "bytes",
          "name": "data",
          "type": "bytes"
        }
      ],
      "name": "safeTransferFrom",
      "outputs": [],
      "stateMutability": "nonpayable",
      "type": "function"
    },
    {
      "inputs": [
        {
          "internalType": "address",
          "name": "operator",
          "type": "address"
        },
        {
          "internalType": "bool",
          "name": "approved",
          "type": "bool"
        }
      ],
      "name": "setApprovalForAll",
      "outputs": [],
      "stateMutability": "nonpayable",
      "type": "function"
    },
    {
      "inputs": [
        {
          "internalType": "bytes4",
          "name": "interfaceId",
          "type": "bytes4"
        }
      ],
      "name": "supportsInterface",
      "outputs": [
        {
          "internalType": "bool",
          "name": "",
          "type": "bool"
        }
      ],
      "stateMutability": "view",
      "type": "function"
    },
    {
      "inputs": [],
      "name": "symbol",
      "outputs": [
        {
          "internalType": "string",
          "name": "",
          "type": "string"
        }
      ],
      "stateMutability": "view",
      "type": "function"
    },
    {
      "inputs": [
        {
          "internalType": "uint256",
          "name": "tokenId",
          "type": "uint256"
        }
      ],
      "name": "tokenURI",
      "outputs": [
        {
          "internalType": "string",
          "name": "",
          "type": "string"
        }
      ],
      "stateMutability": "view",
      "type": "function"
    },
    {
      "inputs": [
        {
          "internalType": "address",
          "name": "from",
          "type": "address"
        },
        {
          "internalType": "address",
          "name": "to",
          "type": "address"
        },
        {
          "internalType": "uint256",
          "name": "tokenId",
          "type": "uint256"
        }
      ],
      "name": "transferFrom",
      "outputs": [],
      "stateMutability": "nonpayable",
      "type": "function"
    },
    {
      "inputs": [
        {
          "internalType": "uint256",
          "name": "_listPrice",
          "type": "uint256"
        }
      ],
      "name": "updateListPrice",
      "outputs": [],
      "stateMutability": "payable",
      "type": "function"
    }
  ],
  "bytecode": "0x60a060405260646008553480156200001657600080fd5b506040518060400160405280600e81526020017f6e46546d61726b6574706c6163650000000000000000000000000000000000008152506040518060400160405280600481526020017f6e66746d0000000000000000000000000000000000000000000000000000000081525081600090816200009491906200035d565b508060019081620000a691906200035d565b5050503373ffffffffffffffffffffffffffffffffffffffff1660808173ffffffffffffffffffffffffffffffffffffffff168152505062000444565b600081519050919050565b7f4e487b7100000000000000000000000000000000000000000000000000000000600052604160045260246000fd5b7f4e487b7100000000000000000000000000000000000000000000000000000000600052602260045260246000fd5b600060028204905060018216806200016557607f821691505b6020821081036200017b576200017a6200011d565b5b50919050565b60008190508160005260206000209050919050565b60006020601f8301049050919050565b600082821b905092915050565b600060088302620001e57fffffffffffffffffffffffffffffffffffffffffffffffffffffffffffffffff82620001a6565b620001f18683620001a6565b95508019841693508086168417925050509392505050565b6000819050919050565b6000819050919050565b60006200023e62000238620002328462000209565b62000213565b62000209565b9050919050565b6000819050919050565b6200025a836200021d565b62000272620002698262000245565b848454620001b3565b825550505050565b600090565b620002896200027a565b620002968184846200024f565b505050565b5b81811015620002be57620002b26000826200027f565b6001810190506200029c565b5050565b601f8211156200030d57620002d78162000181565b620002e28462000196565b81016020851015620002f2578190505b6200030a620003018562000196565b8301826200029b565b50505b505050565b600082821c905092915050565b6000620003326000198460080262000312565b1980831691505092915050565b60006200034d83836200031f565b9150826002028217905092915050565b6200036882620000e3565b67ffffffffffffffff811115620003845762000383620000ee565b5b6200039082546200014c565b6200039d828285620002c2565b600060209050601f831160018114620003d55760008415620003c0578287015190505b620003cc85826200033f565b8655506200043c565b601f198416620003e58662000181565b60005b828110156200040f57848901518255600182019150602085019450602081019050620003e8565b868310156200042f57848901516200042b601f8916826200031f565b8355505b6001600288020188555050505b505050505050565b608051613bf1620004606000396000610fa10152613bf16000f3fe6080604052600436106101405760003560e01c806370a08231116100b6578063b88d4fde1161006f578063b88d4fde1461049b578063c322579c146104c4578063c87b56dd146104e0578063d96a094a1461051d578063e9406b3414610539578063e985e9c51461057657610140565b806370a08231146103725780637ff9a100146103af5780638d610c67146103df57806395d89b411461040a578063a22cb46514610435578063b5ce14a41461045e57610140565b806323b872dd1161010857806323b872dd1461025257806342842e0e1461027b5780634414b5a2146102a45780636352211e146102cd57806368f1945f1461030a5780636e2a10d31461033557610140565b806301ffc9a71461014557806306fdde0314610182578063081812fc146101ad578063095ea7b3146101ea5780632293922f14610213575b600080fd5b34801561015157600080fd5b5061016c6004803603810190610167919061248f565b6105b3565b60405161017991906124d7565b60405180910390f35b34801561018e57600080fd5b50610197610695565b6040516101a49190612582565b60405180910390f35b3480156101b957600080fd5b506101d460048036038101906101cf91906125da565b610727565b6040516101e19190612648565b60405180910390f35b3480156101f657600080fd5b50610211600480360381019061020c919061268f565b61076d565b005b34801561021f57600080fd5b5061023a600480360381019061023591906125da565b610884565b604051610249939291906126de565b60405180910390f35b34801561025e57600080fd5b5061027960048036038101906102749190612715565b610904565b005b34801561028757600080fd5b506102a2600480360381019061029d9190612715565b610964565b005b3480156102b057600080fd5b506102cb60048036038101906102c69190612768565b610984565b005b3480156102d957600080fd5b506102f460048036038101906102ef91906125da565b610a16565b6040516103019190612648565b60405180910390f35b34801561031657600080fd5b5061031f610a9c565b60405161032c91906127a8565b60405180910390f35b34801561034157600080fd5b5061035c600480360381019061035791906125da565b610aa6565b6040516103699190612648565b60405180910390f35b34801561037e57600080fd5b50610399600480360381019061039491906127c3565b610b00565b6040516103a691906127a8565b60405180910390f35b6103c960048036038101906103c49190612925565b610bb7565b6040516103d691906127a8565b60405180910390f35b3480156103eb57600080fd5b506103f4610dd3565b60405161040191906127a8565b60405180910390f35b34801561041657600080fd5b5061041f610ddd565b60405161042c9190612582565b60405180910390f35b34801561044157600080fd5b5061045c600480360381019061045791906129ad565b610e6f565b005b34801561046a57600080fd5b50610485600480360381019061048091906125da565b610e85565b6040516104929190612aab565b60405180910390f35b3480156104a757600080fd5b506104c260048036038101906104bd9190612b6e565b610f26565b005b6104de60048036038101906104d991906125da565b610f88565b005b3480156104ec57600080fd5b50610507600480360381019061050291906125da565b611020565b6040516105149190612582565b60405180910390f35b610537600480360381019061053291906125da565b611132565b005b34801561054557600080fd5b50610560600480360381019061055b91906125da565b6113af565b60405161056d91906127a8565b60405180910390f35b34801561058257600080fd5b5061059d60048036038101906105989190612bf1565b6113cc565b6040516105aa91906124d7565b60405180910390f35b60007f80ac58cd000000000000000000000000000000000000000000000000000000007bffffffffffffffffffffffffffffffffffffffffffffffffffffffff1916827bffffffffffffffffffffffffffffffffffffffffffffffffffffffff1916148061067e57507f5b5e139f000000000000000000000000000000000000000000000000000000007bffffffffffffffffffffffffffffffffffffffffffffffffffffffff1916827bffffffffffffffffffffffffffffffffffffffffffffffffffffffff1916145b8061068e575061068d82611460565b5b9050919050565b6060600080546106a490612c60565b80601f01602080910402602001604051908101604052809291908181526020018280546106d090612c60565b801561071d5780601f106106f25761010080835404028352916020019161071d565b820191906000526020600020905b81548152906001019060200180831161070057829003601f168201915b5050505050905090565b6000610732826114ca565b6004600083815260200190815260200160002060009054906101000a900473ffffffffffffffffffffffffffffffffffffffff169050919050565b600061077882610a16565b90508073ffffffffffffffffffffffffffffffffffffffff168373ffffffffffffffffffffffffffffffffffffffff16036107e8576040517f08c379a00000000000000000000000000000000000000000000000000000000081526004016107df90612d03565b60405180910390fd5b8073ffffffffffffffffffffffffffffffffffffffff16610807611515565b73ffffffffffffffffffffffffffffffffffffffff161480610836575061083581610830611515565b6113cc565b5b610875576040517f08c379a000000000000000000000000000000000000000000000000000000000815260040161086c90612d95565b60405180910390fd5b61087f838361151d565b505050565b6000806000600a60008581526020019081526020016000206000815481106108af576108ae612db5565b5b9060005260206000200160009054906101000a900473ffffffffffffffffffffffffffffffffffffffff1692506108e584610a16565b9150600960008581526020019081526020016000205490509193909250565b61091561090f611515565b826115d6565b610954576040517f08c379a000000000000000000000000000000000000000000000000000000000815260040161094b90612e56565b60405180910390fd5b61095f83838361166b565b505050565b61097f83838360405180602001604052806000815250610f26565b505050565b61098d82610a16565b73ffffffffffffffffffffffffffffffffffffffff163373ffffffffffffffffffffffffffffffffffffffff16146109fa576040517f08c379a00000000000000000000000000000000000000000000000000000000081526004016109f190612ec2565b60405180910390fd5b8060096000848152602001908152602001600020819055505050565b600080610a2283611964565b9050600073ffffffffffffffffffffffffffffffffffffffff168173ffffffffffffffffffffffffffffffffffffffff1603610a93576040517f08c379a0000000000000000000000000000000000000000000000000000000008152600401610a8a90612f2e565b60405180910390fd5b80915050919050565b6000600854905090565b6000600a6000838152602001908152602001600020600081548110610ace57610acd612db5565b5b9060005260206000200160009054906101000a900473ffffffffffffffffffffffffffffffffffffffff169050919050565b60008073ffffffffffffffffffffffffffffffffffffffff168273ffffffffffffffffffffffffffffffffffffffff1603610b70576040517f08c379a0000000000000000000000000000000000000000000000000000000008152600401610b6790612fc0565b60405180910390fd5b600360008373ffffffffffffffffffffffffffffffffffffffff1673ffffffffffffffffffffffffffffffffffffffff168152602001908152602001600020549050919050565b60003373ffffffffffffffffffffffffffffffffffffffff163273ffffffffffffffffffffffffffffffffffffffff1614610c27576040517f08c379a0000000000000000000000000000000000000000000000000000000008152600401610c1e9061302c565b60405180910390fd5b6008543411610c6b576040517f08c379a0000000000000000000000000000000000000000000000000000000008152600401610c6290613098565b60405180910390fd5b60008211610cae576040517f08c379a0000000000000000000000000000000000000000000000000000000008152600401610ca59061312a565b60405180910390fd5b6000600754905060076000815480929190610cc890613179565b9190505550610cd733826119a1565b610ce181856119bf565b600a6000828152602001908152602001600020339080600181540180825580915050600190039060005260206000200160009091909190916101000a81548173ffffffffffffffffffffffffffffffffffffffff021916908373ffffffffffffffffffffffffffffffffffffffff160217905550826009600060075481526020019081526020016000208190555083604051610d7d91906131fd565b6040518091039020813373ffffffffffffffffffffffffffffffffffffffff167f85a66b9141978db9980f7e0ce3b468cebf4f7999f32b23091c5c03e798b1ba7a60405160405180910390a48091505092915050565b6000600754905090565b606060018054610dec90612c60565b80601f0160208091040260200160405190810160405280929190818152602001828054610e1890612c60565b8015610e655780601f10610e3a57610100808354040283529160200191610e65565b820191906000526020600020905b815481529060010190602001808311610e4857829003601f168201915b5050505050905090565b610e81610e7a611515565b8383611a2c565b5050565b6060600a6000838152602001908152602001600020805480602002602001604051908101604052809291908181526020018280548015610f1a57602002820191906000526020600020905b8160009054906101000a900473ffffffffffffffffffffffffffffffffffffffff1673ffffffffffffffffffffffffffffffffffffffff1681526020019060010190808311610ed0575b50505050509050919050565b610f37610f31611515565b836115d6565b610f76576040517f08c379a0000000000000000000000000000000000000000000000000000000008152600401610f6d90612e56565b60405180910390fd5b610f8284848484611b98565b50505050565b3373ffffffffffffffffffffffffffffffffffffffff167f000000000000000000000000000000000000000000000000000000000000000073ffffffffffffffffffffffffffffffffffffffff1614611016576040517f08c379a000000000000000000000000000000000000000000000000000000000815260040161100d90613260565b60405180910390fd5b8060088190555050565b606061102b826114ca565b600060066000848152602001908152602001600020805461104b90612c60565b80601f016020809104026020016040519081016040528092919081815260200182805461107790612c60565b80156110c45780601f10611099576101008083540402835291602001916110c4565b820191906000526020600020905b8154815290600101906020018083116110a757829003601f168201915b5050505050905060006110d5611bf4565b905060008151036110ea57819250505061112d565b60008251111561111f578082604051602001611107929190613280565b6040516020818303038152906040529250505061112d565b61112884611c0b565b925050505b919050565b3273ffffffffffffffffffffffffffffffffffffffff163373ffffffffffffffffffffffffffffffffffffffff16146111a0576040517f08c379a0000000000000000000000000000000000000000000000000000000008152600401611197906132f0565b60405180910390fd5b6111a981610a16565b73ffffffffffffffffffffffffffffffffffffffff163373ffffffffffffffffffffffffffffffffffffffff1603611216576040517f08c379a000000000000000000000000000000000000000000000000000000000815260040161120d9061335c565b60405180910390fd5b600060096000838152602001908152602001600020549050600061123983610a16565b905081341461127d576040517f08c379a0000000000000000000000000000000000000000000000000000000008152600401611274906133ee565b60405180910390fd5b611288813385610964565b600a6000848152602001908152602001600020339080600181540180825580915050600190039060005260206000200160009091909190916101000a81548173ffffffffffffffffffffffffffffffffffffffff021916908373ffffffffffffffffffffffffffffffffffffffff1602179055508073ffffffffffffffffffffffffffffffffffffffff166108fc349081150290604051600060405180830381858888f19350505050158015611342573d6000803e3d6000fd5b503373ffffffffffffffffffffffffffffffffffffffff168173ffffffffffffffffffffffffffffffffffffffff167f89f5adc174562e07c9c9b1cae7109bbecb21cf9d1b2847e550042b8653c54a0e85856040516113a292919061340e565b60405180910390a3505050565b600060096000838152602001908152602001600020549050919050565b6000600560008473ffffffffffffffffffffffffffffffffffffffff1673ffffffffffffffffffffffffffffffffffffffff16815260200190815260200160002060008373ffffffffffffffffffffffffffffffffffffffff1673ffffffffffffffffffffffffffffffffffffffff16815260200190815260200160002060009054906101000a900460ff16905092915050565b60007f01ffc9a7000000000000000000000000000000000000000000000000000000007bffffffffffffffffffffffffffffffffffffffffffffffffffffffff1916827bffffffffffffffffffffffffffffffffffffffffffffffffffffffff1916149050919050565b6114d381611c73565b611512576040517f08c379a000000000000000000000000000000000000000000000000000000000815260040161150990612f2e565b60405180910390fd5b50565b600033905090565b816004600083815260200190815260200160002060006101000a81548173ffffffffffffffffffffffffffffffffffffffff021916908373ffffffffffffffffffffffffffffffffffffffff160217905550808273ffffffffffffffffffffffffffffffffffffffff1661159083610a16565b73ffffffffffffffffffffffffffffffffffffffff167f8c5be1e5ebec7d5bd14f71427d1e84f3dd0314c0f7b2291e5b200ac8c7c3b92560405160405180910390a45050565b6000806115e283610a16565b90508073ffffffffffffffffffffffffffffffffffffffff168473ffffffffffffffffffffffffffffffffffffffff161480611624575061162381856113cc565b5b8061166257508373ffffffffffffffffffffffffffffffffffffffff1661164a84610727565b73ffffffffffffffffffffffffffffffffffffffff16145b91505092915050565b8273ffffffffffffffffffffffffffffffffffffffff1661168b82610a16565b73ffffffffffffffffffffffffffffffffffffffff16146116e1576040517f08c379a00000000000000000000000000000000000000000000000000000000081526004016116d8906134a9565b60405180910390fd5b600073ffffffffffffffffffffffffffffffffffffffff168273ffffffffffffffffffffffffffffffffffffffff1603611750576040517f08c379a00000000000000000000000000000000000000000000000000000000081526004016117479061353b565b60405180910390fd5b61175d8383836001611cb4565b8273ffffffffffffffffffffffffffffffffffffffff1661177d82610a16565b73ffffffffffffffffffffffffffffffffffffffff16146117d3576040517f08c379a00000000000000000000000000000000000000000000000000000000081526004016117ca906134a9565b60405180910390fd5b6004600082815260200190815260200160002060006101000a81549073ffffffffffffffffffffffffffffffffffffffff02191690556001600360008573ffffffffffffffffffffffffffffffffffffffff1673ffffffffffffffffffffffffffffffffffffffff168152602001908152602001600020600082825403925050819055506001600360008473ffffffffffffffffffffffffffffffffffffffff1673ffffffffffffffffffffffffffffffffffffffff16815260200190815260200160002060008282540192505081905550816002600083815260200190815260200160002060006101000a81548173ffffffffffffffffffffffffffffffffffffffff021916908373ffffffffffffffffffffffffffffffffffffffff160217905550808273ffffffffffffffffffffffffffffffffffffffff168473ffffffffffffffffffffffffffffffffffffffff167fddf252ad1be2c89b69c2b068fc378daa952ba7f163c4a11628f55a4df523b3ef60405160405180910390a461195f8383836001611dda565b505050565b60006002600083815260200190815260200160002060009054906101000a900473ffffffffffffffffffffffffffffffffffffffff169050919050565b6119bb828260405180602001604052806000815250611de0565b5050565b6119c882611c73565b611a07576040517f08c379a00000000000000000000000000000000000000000000000000000000081526004016119fe906135cd565b60405180910390fd5b80600660008481526020019081526020016000209081611a279190613799565b505050565b8173ffffffffffffffffffffffffffffffffffffffff168373ffffffffffffffffffffffffffffffffffffffff1603611a9a576040517f08c379a0000000000000000000000000000000000000000000000000000000008152600401611a91906138b7565b60405180910390fd5b80600560008573ffffffffffffffffffffffffffffffffffffffff1673ffffffffffffffffffffffffffffffffffffffff16815260200190815260200160002060008473ffffffffffffffffffffffffffffffffffffffff1673ffffffffffffffffffffffffffffffffffffffff16815260200190815260200160002060006101000a81548160ff0219169083151502179055508173ffffffffffffffffffffffffffffffffffffffff168373ffffffffffffffffffffffffffffffffffffffff167f17307eab39ab6107e8899845ad3d59bd9653f200f220920489ca2b5937696c3183604051611b8b91906124d7565b60405180910390a3505050565b611ba384848461166b565b611baf84848484611e3b565b611bee576040517f08c379a0000000000000000000000000000000000000000000000000000000008152600401611be590613949565b60405180910390fd5b50505050565b606060405180602001604052806000815250905090565b6060611c16826114ca565b6000611c20611bf4565b90506000815111611c405760405180602001604052806000815250611c6b565b80611c4a84611fc2565b604051602001611c5b929190613280565b6040516020818303038152906040525b915050919050565b60008073ffffffffffffffffffffffffffffffffffffffff16611c9583611964565b73ffffffffffffffffffffffffffffffffffffffff1614159050919050565b6001811115611dd457600073ffffffffffffffffffffffffffffffffffffffff168473ffffffffffffffffffffffffffffffffffffffff1614611d485780600360008673ffffffffffffffffffffffffffffffffffffffff1673ffffffffffffffffffffffffffffffffffffffff1681526020019081526020016000206000828254611d409190613969565b925050819055505b600073ffffffffffffffffffffffffffffffffffffffff168373ffffffffffffffffffffffffffffffffffffffff1614611dd35780600360008573ffffffffffffffffffffffffffffffffffffffff1673ffffffffffffffffffffffffffffffffffffffff1681526020019081526020016000206000828254611dcb919061399d565b925050819055505b5b50505050565b50505050565b611dea8383612090565b611df76000848484611e3b565b611e36576040517f08c379a0000000000000000000000000000000000000000000000000000000008152600401611e2d90613949565b60405180910390fd5b505050565b6000611e5c8473ffffffffffffffffffffffffffffffffffffffff166122ad565b15611fb5578373ffffffffffffffffffffffffffffffffffffffff1663150b7a02611e85611515565b8786866040518563ffffffff1660e01b8152600401611ea79493929190613a26565b6020604051808303816000875af1925050508015611ee357506040513d601f19601f82011682018060405250810190611ee09190613a87565b60015b611f65573d8060008114611f13576040519150601f19603f3d011682016040523d82523d6000602084013e611f18565b606091505b506000815103611f5d576040517f08c379a0000000000000000000000000000000000000000000000000000000008152600401611f5490613949565b60405180910390fd5b805181602001fd5b63150b7a0260e01b7bffffffffffffffffffffffffffffffffffffffffffffffffffffffff1916817bffffffffffffffffffffffffffffffffffffffffffffffffffffffff191614915050611fba565b600190505b949350505050565b606060006001611fd1846122d0565b01905060008167ffffffffffffffff811115611ff057611fef6127fa565b5b6040519080825280601f01601f1916602001820160405280156120225781602001600182028036833780820191505090505b509050600082602001820190505b600115612085578080600190039150507f3031323334353637383961626364656600000000000000000000000000000000600a86061a8153600a858161207957612078613ab4565b5b04945060008503612030575b819350505050919050565b600073ffffffffffffffffffffffffffffffffffffffff168273ffffffffffffffffffffffffffffffffffffffff16036120ff576040517f08c379a00000000000000000000000000000000000000000000000000000000081526004016120f690613b2f565b60405180910390fd5b61210881611c73565b15612148576040517f08c379a000000000000000000000000000000000000000000000000000000000815260040161213f90613b9b565b60405180910390fd5b612156600083836001611cb4565b61215f81611c73565b1561219f576040517f08c379a000000000000000000000000000000000000000000000000000000000815260040161219690613b9b565b60405180910390fd5b6001600360008473ffffffffffffffffffffffffffffffffffffffff1673ffffffffffffffffffffffffffffffffffffffff16815260200190815260200160002060008282540192505081905550816002600083815260200190815260200160002060006101000a81548173ffffffffffffffffffffffffffffffffffffffff021916908373ffffffffffffffffffffffffffffffffffffffff160217905550808273ffffffffffffffffffffffffffffffffffffffff16600073ffffffffffffffffffffffffffffffffffffffff167fddf252ad1be2c89b69c2b068fc378daa952ba7f163c4a11628f55a4df523b3ef60405160405180910390a46122a9600083836001611dda565b5050565b6000808273ffffffffffffffffffffffffffffffffffffffff163b119050919050565b600080600090507a184f03e93ff9f4daa797ed6e38ed64bf6a1f010000000000000000831061232e577a184f03e93ff9f4daa797ed6e38ed64bf6a1f010000000000000000838161232457612323613ab4565b5b0492506040810190505b6d04ee2d6d415b85acef8100000000831061236b576d04ee2d6d415b85acef8100000000838161236157612360613ab4565b5b0492506020810190505b662386f26fc10000831061239a57662386f26fc1000083816123905761238f613ab4565b5b0492506010810190505b6305f5e10083106123c3576305f5e10083816123b9576123b8613ab4565b5b0492506008810190505b61271083106123e85761271083816123de576123dd613ab4565b5b0492506004810190505b6064831061240b576064838161240157612400613ab4565b5b0492506002810190505b600a831061241a576001810190505b80915050919050565b6000604051905090565b600080fd5b600080fd5b60007fffffffff0000000000000000000000000000000000000000000000000000000082169050919050565b61246c81612437565b811461247757600080fd5b50565b60008135905061248981612463565b92915050565b6000602082840312156124a5576124a461242d565b5b60006124b38482850161247a565b91505092915050565b60008115159050919050565b6124d1816124bc565b82525050565b60006020820190506124ec60008301846124c8565b92915050565b600081519050919050565b600082825260208201905092915050565b60005b8381101561252c578082015181840152602081019050612511565b60008484015250505050565b6000601f19601f8301169050919050565b6000612554826124f2565b61255e81856124fd565b935061256e81856020860161250e565b61257781612538565b840191505092915050565b6000602082019050818103600083015261259c8184612549565b905092915050565b6000819050919050565b6125b7816125a4565b81146125c257600080fd5b50565b6000813590506125d4816125ae565b92915050565b6000602082840312156125f0576125ef61242d565b5b60006125fe848285016125c5565b91505092915050565b600073ffffffffffffffffffffffffffffffffffffffff82169050919050565b600061263282612607565b9050919050565b61264281612627565b82525050565b600060208201905061265d6000830184612639565b92915050565b61266c81612627565b811461267757600080fd5b50565b60008135905061268981612663565b92915050565b600080604083850312156126a6576126a561242d565b5b60006126b48582860161267a565b92505060206126c5858286016125c5565b9150509250929050565b6126d8816125a4565b82525050565b60006060820190506126f36000830186612639565b6127006020830185612639565b61270d60408301846126cf565b949350505050565b60008060006060848603121561272e5761272d61242d565b5b600061273c8682870161267a565b935050602061274d8682870161267a565b925050604061275e868287016125c5565b9150509250925092565b6000806040838503121561277f5761277e61242d565b5b600061278d858286016125c5565b925050602061279e858286016125c5565b9150509250929050565b60006020820190506127bd60008301846126cf565b92915050565b6000602082840312156127d9576127d861242d565b5b60006127e78482850161267a565b91505092915050565b600080fd5b600080fd5b7f4e487b7100000000000000000000000000000000000000000000000000000000600052604160045260246000fd5b61283282612538565b810181811067ffffffffffffffff82111715612851576128506127fa565b5b80604052505050565b6000612864612423565b90506128708282612829565b919050565b600067ffffffffffffffff8211156128905761288f6127fa565b5b61289982612538565b9050602081019050919050565b82818337600083830152505050565b60006128c86128c384612875565b61285a565b9050828152602081018484840111156128e4576128e36127f5565b5b6128ef8482856128a6565b509392505050565b600082601f83011261290c5761290b6127f0565b5b813561291c8482602086016128b5565b91505092915050565b6000806040838503121561293c5761293b61242d565b5b600083013567ffffffffffffffff81111561295a57612959612432565b5b612966858286016128f7565b9250506020612977858286016125c5565b9150509250929050565b61298a816124bc565b811461299557600080fd5b50565b6000813590506129a781612981565b92915050565b600080604083850312156129c4576129c361242d565b5b60006129d28582860161267a565b92505060206129e385828601612998565b9150509250929050565b600081519050919050565b600082825260208201905092915050565b6000819050602082019050919050565b612a2281612627565b82525050565b6000612a348383612a19565b60208301905092915050565b6000602082019050919050565b6000612a58826129ed565b612a6281856129f8565b9350612a6d83612a09565b8060005b83811015612a9e578151612a858882612a28565b9750612a9083612a40565b925050600181019050612a71565b5085935050505092915050565b60006020820190508181036000830152612ac58184612a4d565b905092915050565b600067ffffffffffffffff821115612ae857612ae76127fa565b5b612af182612538565b9050602081019050919050565b6000612b11612b0c84612acd565b61285a565b905082815260208101848484011115612b2d57612b2c6127f5565b5b612b388482856128a6565b509392505050565b600082601f830112612b5557612b546127f0565b5b8135612b65848260208601612afe565b91505092915050565b60008060008060808587031215612b8857612b8761242d565b5b6000612b968782880161267a565b9450506020612ba78782880161267a565b9350506040612bb8878288016125c5565b925050606085013567ffffffffffffffff811115612bd957612bd8612432565b5b612be587828801612b40565b91505092959194509250565b60008060408385031215612c0857612c0761242d565b5b6000612c168582860161267a565b9250506020612c278582860161267a565b9150509250929050565b7f4e487b7100000000000000000000000000000000000000000000000000000000600052602260045260246000fd5b60006002820490506001821680612c7857607f821691505b602082108103612c8b57612c8a612c31565b5b50919050565b7f4552433732313a20617070726f76616c20746f2063757272656e74206f776e6560008201527f7200000000000000000000000000000000000000000000000000000000000000602082015250565b6000612ced6021836124fd565b9150612cf882612c91565b604082019050919050565b60006020820190508181036000830152612d1c81612ce0565b9050919050565b7f4552433732313a20617070726f76652063616c6c6572206973206e6f7420746f60008201527f6b656e206f776e6572206f7220617070726f76656420666f7220616c6c000000602082015250565b6000612d7f603d836124fd565b9150612d8a82612d23565b604082019050919050565b60006020820190508181036000830152612dae81612d72565b9050919050565b7f4e487b7100000000000000000000000000000000000000000000000000000000600052603260045260246000fd5b7f4552433732313a2063616c6c6572206973206e6f7420746f6b656e206f776e6560008201527f72206f7220617070726f76656400000000000000000000000000000000000000602082015250565b6000612e40602d836124fd565b9150612e4b82612de4565b604082019050919050565b60006020820190508181036000830152612e6f81612e33565b9050919050565b7f4f776e657220556e617574686f72697365640000000000000000000000000000600082015250565b6000612eac6012836124fd565b9150612eb782612e76565b602082019050919050565b60006020820190508181036000830152612edb81612e9f565b9050919050565b7f4552433732313a20696e76616c696420746f6b656e2049440000000000000000600082015250565b6000612f186018836124fd565b9150612f2382612ee2565b602082019050919050565b60006020820190508181036000830152612f4781612f0b565b9050919050565b7f4552433732313a2061646472657373207a65726f206973206e6f74206120766160008201527f6c6964206f776e65720000000000000000000000000000000000000000000000602082015250565b6000612faa6029836124fd565b9150612fb582612f4e565b604082019050919050565b60006020820190508181036000830152612fd981612f9d565b9050919050565b7f6f6e6c7920627920454f412063616e206d696e74204e46540000000000000000600082015250565b60006130166018836124fd565b915061302182612fe0565b602082019050919050565b6000602082019050818103600083015261304581613009565b9050919050565b7f73656e6420656e6f756768206574686572000000000000000000000000000000600082015250565b60006130826011836124fd565b915061308d8261304c565b602082019050919050565b600060208201905081810360008301526130b181613075565b9050919050565b7f73686f756c6420626520736f6d652076616c7561626c65207072696365206f6660008201527f206e667400000000000000000000000000000000000000000000000000000000602082015250565b60006131146024836124fd565b915061311f826130b8565b604082019050919050565b6000602082019050818103600083015261314381613107565b9050919050565b7f4e487b7100000000000000000000000000000000000000000000000000000000600052601160045260246000fd5b6000613184826125a4565b91507fffffffffffffffffffffffffffffffffffffffffffffffffffffffffffffffff82036131b6576131b561314a565b5b600182019050919050565b600081905092915050565b60006131d7826124f2565b6131e181856131c1565b93506131f181856020860161250e565b80840191505092915050565b600061320982846131cc565b915081905092915050565b7f6f6e6c7920666f72206f776e6572000000000000000000000000000000000000600082015250565b600061324a600e836124fd565b915061325582613214565b602082019050919050565b600060208201905081810360008301526132798161323d565b9050919050565b600061328c82856131cc565b915061329882846131cc565b91508190509392505050565b7f6f6e6c7920454f412063616e20696e7472656374000000000000000000000000600082015250565b60006132da6014836124fd565b91506132e5826132a4565b602082019050919050565b60006020820190508181036000830152613309816132cd565b9050919050565b7f796f752063616e277420627579206f776e206e66740000000000000000000000600082015250565b60006133466015836124fd565b915061335182613310565b602082019050919050565b6000602082019050818103600083015261337581613339565b9050919050565b7f506c65617365207375626d6974207468652061736b696e67207072696365206960008201527f6e206f7264657220746f20636f6d706c65746520746865207075726368617365602082015250565b60006133d86040836124fd565b91506133e38261337c565b604082019050919050565b60006020820190508181036000830152613407816133cb565b9050919050565b600060408201905061342360008301856126cf565b61343060208301846126cf565b9392505050565b7f4552433732313a207472616e736665722066726f6d20696e636f72726563742060008201527f6f776e6572000000000000000000000000000000000000000000000000000000602082015250565b60006134936025836124fd565b915061349e82613437565b604082019050919050565b600060208201905081810360008301526134c281613486565b9050919050565b7f4552433732313a207472616e7366657220746f20746865207a65726f2061646460008201527f7265737300000000000000000000000000000000000000000000000000000000602082015250565b60006135256024836124fd565b9150613530826134c9565b604082019050919050565b6000602082019050818103600083015261355481613518565b9050919050565b7f45524337323155524953746f726167653a2055524920736574206f66206e6f6e60008201527f6578697374656e7420746f6b656e000000000000000000000000000000000000602082015250565b60006135b7602e836124fd565b91506135c28261355b565b604082019050919050565b600060208201905081810360008301526135e6816135aa565b9050919050565b60008190508160005260206000209050919050565b60006020601f8301049050919050565b600082821b905092915050565b60006008830261364f7fffffffffffffffffffffffffffffffffffffffffffffffffffffffffffffffff82613612565b6136598683613612565b95508019841693508086168417925050509392505050565b6000819050919050565b600061369661369161368c846125a4565b613671565b6125a4565b9050919050565b6000819050919050565b6136b08361367b565b6136c46136bc8261369d565b84845461361f565b825550505050565b600090565b6136d96136cc565b6136e48184846136a7565b505050565b5b81811015613708576136fd6000826136d1565b6001810190506136ea565b5050565b601f82111561374d5761371e816135ed565b61372784613602565b81016020851015613736578190505b61374a61374285613602565b8301826136e9565b50505b505050565b600082821c905092915050565b600061377060001984600802613752565b1980831691505092915050565b6000613789838361375f565b9150826002028217905092915050565b6137a2826124f2565b67ffffffffffffffff8111156137bb576137ba6127fa565b5b6137c58254612c60565b6137d082828561370c565b600060209050601f83116001811461380357600084156137f1578287015190505b6137fb858261377d565b865550613863565b601f198416613811866135ed565b60005b8281101561383957848901518255600182019150602085019450602081019050613814565b868310156138565784890151613852601f89168261375f565b8355505b6001600288020188555050505b505050505050565b7f4552433732313a20617070726f766520746f2063616c6c657200000000000000600082015250565b60006138a16019836124fd565b91506138ac8261386b565b602082019050919050565b600060208201905081810360008301526138d081613894565b9050919050565b7f4552433732313a207472616e7366657220746f206e6f6e20455243373231526560008201527f63656976657220696d706c656d656e7465720000000000000000000000000000602082015250565b60006139336032836124fd565b915061393e826138d7565b604082019050919050565b6000602082019050818103600083015261396281613926565b9050919050565b6000613974826125a4565b915061397f836125a4565b92508282039050818111156139975761399661314a565b5b92915050565b60006139a8826125a4565b91506139b3836125a4565b92508282019050808211156139cb576139ca61314a565b5b92915050565b600081519050919050565b600082825260208201905092915050565b60006139f8826139d1565b613a0281856139dc565b9350613a1281856020860161250e565b613a1b81612538565b840191505092915050565b6000608082019050613a3b6000830187612639565b613a486020830186612639565b613a5560408301856126cf565b8181036060830152613a6781846139ed565b905095945050505050565b600081519050613a8181612463565b92915050565b600060208284031215613a9d57613a9c61242d565b5b6000613aab84828501613a72565b91505092915050565b7f4e487b7100000000000000000000000000000000000000000000000000000000600052601260045260246000fd5b7f4552433732313a206d696e7420746f20746865207a65726f2061646472657373600082015250565b6000613b196020836124fd565b9150613b2482613ae3565b602082019050919050565b60006020820190508181036000830152613b4881613b0c565b9050919050565b7f4552433732313a20746f6b656e20616c7265616479206d696e74656400000000600082015250565b6000613b85601c836124fd565b9150613b9082613b4f565b602082019050919050565b60006020820190508181036000830152613bb481613b78565b905091905056fea26469706673582212202b6398d517c1756ca44c9afeedb4f739554d632e08602211e0818072fbe31ace64736f6c63430008110033",
  "linkReferences": {},
  "deployedLinkReferences": {}
}