{
  "_format": "hh-sol-artifact-1",
  "contractName": "NFTmarketplace",
  "sourceName": "contracts/NftMarket.sol",
  "abi": [
    {
      "inputs": [],
      "stateMutability": "nonpayable",
      "type": "constructor"
    },
    {
      "anonymous": false,
      "inputs": [
        {
          "indexed": true,
          "internalType": "address",
          "name": "owner",
          "type": "address"
        },
        {
          "indexed": true,
          "internalType": "address",
          "name": "approved",
          "type": "address"
        },
        {
          "indexed": true,
          "internalType": "uint256",
          "name": "tokenId",
          "type": "uint256"
        }
      ],
      "name": "Approval",
      "type": "event"
    },
    {
      "anonymous": false,
      "inputs": [
        {
          "indexed": true,
          "internalType": "address",
          "name": "owner",
          "type": "address"
        },
        {
          "indexed": true,
          "internalType": "address",
          "name": "operator",
          "type": "address"
        },
        {
          "indexed": false,
          "internalType": "bool",
          "name": "approved",
          "type": "bool"
        }
      ],
      "name": "ApprovalForAll",
      "type": "event"
    },
    {
      "anonymous": false,
      "inputs": [
        {
          "indexed": true,
          "internalType": "address",
          "name": "from",
          "type": "address"
        },
        {
          "indexed": true,
          "internalType": "address",
          "name": "to",
          "type": "address"
        },
        {
          "indexed": false,
          "internalType": "uint256",
          "name": "tokenId",
          "type": "uint256"
        },
        {
          "indexed": false,
          "internalType": "uint256",
          "name": "price",
          "type": "uint256"
        }
      ],
      "name": "Buy",
      "type": "event"
    },
    {
      "anonymous": false,
      "inputs": [
        {
          "indexed": true,
          "internalType": "address",
          "name": "creator",
          "type": "address"
        },
        {
          "indexed": true,
          "internalType": "uint256",
          "name": "tokenId",
          "type": "uint256"
        },
        {
          "indexed": true,
          "internalType": "string",
          "name": "tokenURI",
          "type": "string"
        }
      ],
      "name": "Mint",
      "type": "event"
    },
    {
      "anonymous": false,
      "inputs": [
        {
          "indexed": true,
          "internalType": "address",
          "name": "from",
          "type": "address"
        },
        {
          "indexed": true,
          "internalType": "address",
          "name": "to",
          "type": "address"
        },
        {
          "indexed": true,
          "internalType": "uint256",
          "name": "tokenId",
          "type": "uint256"
        }
      ],
      "name": "Transfer",
      "type": "event"
    },
    {
      "inputs": [
        {
          "internalType": "uint256",
          "name": "tokenId",
          "type": "uint256"
        }
      ],
      "name": "GetCreatorOfNft",
      "outputs": [
        {
          "internalType": "address",
          "name": "",
          "type": "address"
        }
      ],
      "stateMutability": "view",
      "type": "function"
    },
    {
      "inputs": [],
      "name": "GetCurrentToken",
      "outputs": [
        {
          "internalType": "uint256",
          "name": "",
          "type": "uint256"
        }
      ],
      "stateMutability": "view",
      "type": "function"
    },
    {
      "inputs": [
        {
          "internalType": "uint256",
          "name": "tokenId",
          "type": "uint256"
        }
      ],
      "name": "GetNFTDetails",
      "outputs": [
        {
          "internalType": "address",
          "name": "creator",
          "type": "address"
        },
        {
          "internalType": "address",
          "name": "owner",
          "type": "address"
        },
        {
          "internalType": "uint256",
          "name": "price",
          "type": "uint256"
        },
        {
          "internalType": "string",
          "name": "IpfsHash",
          "type": "string"
        }
      ],
      "stateMutability": "view",
      "type": "function"
    },
    {
      "inputs": [
        {
          "internalType": "uint256",
          "name": "tokenId",
          "type": "uint256"
        }
      ],
      "name": "GetNftPrice",
      "outputs": [
        {
          "internalType": "uint256",
          "name": "",
          "type": "uint256"
        }
      ],
      "stateMutability": "view",
      "type": "function"
    },
    {
      "inputs": [
        {
          "internalType": "uint256",
          "name": "tokenId",
          "type": "uint256"
        }
      ],
      "name": "GetTransactionHistory",
      "outputs": [
        {
          "internalType": "address[]",
          "name": "",
          "type": "address[]"
        }
      ],
      "stateMutability": "view",
      "type": "function"
    },
    {
      "inputs": [
        {
          "internalType": "address",
          "name": "user",
          "type": "address"
        }
      ],
      "name": "MyTotalNft",
      "outputs": [
        {
          "internalType": "uint256",
          "name": "",
          "type": "uint256"
        }
      ],
      "stateMutability": "view",
      "type": "function"
    },
    {
      "inputs": [
        {
          "internalType": "uint256",
          "name": "tokenId",
          "type": "uint256"
        },
        {
          "internalType": "uint256",
          "name": "price",
          "type": "uint256"
        }
      ],
      "name": "UpdateNftPrice",
      "outputs": [],
      "stateMutability": "nonpayable",
      "type": "function"
    },
    {
      "inputs": [
        {
          "internalType": "address",
          "name": "to",
          "type": "address"
        },
        {
          "internalType": "uint256",
          "name": "tokenId",
          "type": "uint256"
        }
      ],
      "name": "approve",
      "outputs": [],
      "stateMutability": "nonpayable",
      "type": "function"
    },
    {
      "inputs": [
        {
          "internalType": "address",
          "name": "owner",
          "type": "address"
        }
      ],
      "name": "balanceOf",
      "outputs": [
        {
          "internalType": "uint256",
          "name": "",
          "type": "uint256"
        }
      ],
      "stateMutability": "view",
      "type": "function"
    },
    {
      "inputs": [
        {
          "internalType": "uint256",
          "name": "tokenId",
          "type": "uint256"
        }
      ],
      "name": "buy",
      "outputs": [],
      "stateMutability": "payable",
      "type": "function"
    },
    {
      "inputs": [
        {
          "internalType": "string",
          "name": "tokenURI",
          "type": "string"
        },
        {
          "internalType": "uint256",
          "name": "price",
          "type": "uint256"
        }
      ],
      "name": "creatToken",
      "outputs": [
        {
          "internalType": "uint256",
          "name": "",
          "type": "uint256"
        }
      ],
      "stateMutability": "nonpayable",
      "type": "function"
    },
    {
      "inputs": [
        {
          "internalType": "uint256",
          "name": "tokenId",
          "type": "uint256"
        }
      ],
      "name": "getApproved",
      "outputs": [
        {
          "internalType": "address",
          "name": "",
          "type": "address"
        }
      ],
      "stateMutability": "view",
      "type": "function"
    },
    {
      "inputs": [
        {
          "internalType": "address",
          "name": "owner",
          "type": "address"
        },
        {
          "internalType": "address",
          "name": "operator",
          "type": "address"
        }
      ],
      "name": "isApprovedForAll",
      "outputs": [
        {
          "internalType": "bool",
          "name": "",
          "type": "bool"
        }
      ],
      "stateMutability": "view",
      "type": "function"
    },
    {
      "inputs": [],
      "name": "name",
      "outputs": [
        {
          "internalType": "string",
          "name": "",
          "type": "string"
        }
      ],
      "stateMutability": "view",
      "type": "function"
    },
    {
      "inputs": [
        {
          "internalType": "uint256",
          "name": "tokenId",
          "type": "uint256"
        }
      ],
      "name": "ownerOf",
      "outputs": [
        {
          "internalType": "address",
          "name": "",
          "type": "address"
        }
      ],
      "stateMutability": "view",
      "type": "function"
    },
    {
      "inputs": [
        {
          "internalType": "address",
          "name": "from",
          "type": "address"
        },
        {
          "internalType": "address",
          "name": "to",
          "type": "address"
        },
        {
          "internalType": "uint256",
          "name": "tokenId",
          "type": "uint256"
        }
      ],
      "name": "safeTransferFrom",
      "outputs": [],
      "stateMutability": "nonpayable",
      "type": "function"
    },
    {
      "inputs": [
        {
          "internalType": "address",
          "name": "from",
          "type": "address"
        },
        {
          "internalType": "address",
          "name": "to",
          "type": "address"
        },
        {
          "internalType": "uint256",
          "name": "tokenId",
          "type": "uint256"
        },
        {
          "internalType": "bytes",
          "name": "data",
          "type": "bytes"
        }
      ],
      "name": "safeTransferFrom",
      "outputs": [],
      "stateMutability": "nonpayable",
      "type": "function"
    },
    {
      "inputs": [
        {
          "internalType": "address",
          "name": "operator",
          "type": "address"
        },
        {
          "internalType": "bool",
          "name": "approved",
          "type": "bool"
        }
      ],
      "name": "setApprovalForAll",
      "outputs": [],
      "stateMutability": "nonpayable",
      "type": "function"
    },
    {
      "inputs": [
        {
          "internalType": "bytes4",
          "name": "interfaceId",
          "type": "bytes4"
        }
      ],
      "name": "supportsInterface",
      "outputs": [
        {
          "internalType": "bool",
          "name": "",
          "type": "bool"
        }
      ],
      "stateMutability": "view",
      "type": "function"
    },
    {
      "inputs": [],
      "name": "symbol",
      "outputs": [
        {
          "internalType": "string",
          "name": "",
          "type": "string"
        }
      ],
      "stateMutability": "view",
      "type": "function"
    },
    {
      "inputs": [
        {
          "internalType": "uint256",
          "name": "tokenId",
          "type": "uint256"
        }
      ],
      "name": "tokenURI",
      "outputs": [
        {
          "internalType": "string",
          "name": "",
          "type": "string"
        }
      ],
      "stateMutability": "view",
      "type": "function"
    },
    {
      "inputs": [
        {
          "internalType": "address",
          "name": "from",
          "type": "address"
        },
        {
          "internalType": "address",
          "name": "to",
          "type": "address"
        },
        {
          "internalType": "uint256",
          "name": "tokenId",
          "type": "uint256"
        }
      ],
      "name": "transferFrom",
      "outputs": [],
      "stateMutability": "nonpayable",
      "type": "function"
    },
    {
      "inputs": [],
      "name": "withdraw",
      "outputs": [],
      "stateMutability": "nonpayable",
      "type": "function"
    }
  ],
  "bytecode": "0x60a06040523480156200001157600080fd5b506040518060400160405280600881526020017f4e617066746465760000000000000000000000000000000000000000000000008152506040518060400160405280600581526020017f4e41504654000000000000000000000000000000000000000000000000000000815250816000908051906020019062000096929190620000ec565b508060019080519060200190620000af929190620000ec565b5050503373ffffffffffffffffffffffffffffffffffffffff1660808173ffffffffffffffffffffffffffffffffffffffff168152505062000201565b828054620000fa90620001cb565b90600052602060002090601f0160209004810192826200011e57600085556200016a565b82601f106200013957805160ff19168380011785556200016a565b828001600101855582156200016a579182015b82811115620001695782518255916020019190600101906200014c565b5b5090506200017991906200017d565b5090565b5b80821115620001985760008160009055506001016200017e565b5090565b7f4e487b7100000000000000000000000000000000000000000000000000000000600052602260045260246000fd5b60006002820490506001821680620001e457607f821691505b60208210811415620001fb57620001fa6200019c565b5b50919050565b608051613c976200021d600039600061098f0152613c976000f3fe6080604052600436106101405760003560e01c806370a08231116100b6578063b88d4fde1161006f578063b88d4fde14610495578063c87b56dd146104be578063d96a094a146104fb578063e9406b3414610517578063e985e9c514610554578063fd12f7891461059157610140565b806370a082311461035f5780637ff9a1001461039c5780638d610c67146103d957806395d89b4114610404578063a22cb4651461042f578063b5ce14a41461045857610140565b806323b872dd1161010857806323b872dd146102535780633ccfd60b1461027c57806342842e0e146102935780634414b5a2146102bc5780636352211e146102e55780636e2a10d31461032257610140565b806301ffc9a71461014557806306fdde0314610182578063081812fc146101ad578063095ea7b3146101ea5780632293922f14610213575b600080fd5b34801561015157600080fd5b5061016c600480360381019061016791906126ca565b6105ce565b6040516101799190612712565b60405180910390f35b34801561018e57600080fd5b506101976106b0565b6040516101a491906127c6565b60405180910390f35b3480156101b957600080fd5b506101d460048036038101906101cf919061281e565b610742565b6040516101e1919061288c565b60405180910390f35b3480156101f657600080fd5b50610211600480360381019061020c91906128d3565b610788565b005b34801561021f57600080fd5b5061023a6004803603810190610235919061281e565b6108a0565b60405161024a9493929190612922565b60405180910390f35b34801561025f57600080fd5b5061027a6004803603810190610275919061296e565b61092d565b005b34801561028857600080fd5b5061029161098d565b005b34801561029f57600080fd5b506102ba60048036038101906102b5919061296e565b610a2e565b005b3480156102c857600080fd5b506102e360048036038101906102de91906129c1565b610a4e565b005b3480156102f157600080fd5b5061030c6004803603810190610307919061281e565b610ae0565b604051610319919061288c565b60405180910390f35b34801561032e57600080fd5b506103496004803603810190610344919061281e565b610b67565b604051610356919061288c565b60405180910390f35b34801561036b57600080fd5b5061038660048036038101906103819190612a01565b610bc1565b6040516103939190612a2e565b60405180910390f35b3480156103a857600080fd5b506103c360048036038101906103be9190612b7e565b610c79565b6040516103d09190612a2e565b60405180910390f35b3480156103e557600080fd5b506103ee610e4f565b6040516103fb9190612a2e565b60405180910390f35b34801561041057600080fd5b50610419610e59565b60405161042691906127c6565b60405180910390f35b34801561043b57600080fd5b5061045660048036038101906104519190612c06565b610eeb565b005b34801561046457600080fd5b5061047f600480360381019061047a919061281e565b610f01565b60405161048c9190612d04565b60405180910390f35b3480156104a157600080fd5b506104bc60048036038101906104b79190612dc7565b610fa2565b005b3480156104ca57600080fd5b506104e560048036038101906104e0919061281e565b611004565b6040516104f291906127c6565b60405180910390f35b6105156004803603810190610510919061281e565b611117565b005b34801561052357600080fd5b5061053e6004803603810190610539919061281e565b6114af565b60405161054b9190612a2e565b60405180910390f35b34801561056057600080fd5b5061057b60048036038101906105769190612e4a565b6114cc565b6040516105889190612712565b60405180910390f35b34801561059d57600080fd5b506105b860048036038101906105b39190612a01565b611560565b6040516105c59190612a2e565b60405180910390f35b60007f80ac58cd000000000000000000000000000000000000000000000000000000007bffffffffffffffffffffffffffffffffffffffffffffffffffffffff1916827bffffffffffffffffffffffffffffffffffffffffffffffffffffffff1916148061069957507f5b5e139f000000000000000000000000000000000000000000000000000000007bffffffffffffffffffffffffffffffffffffffffffffffffffffffff1916827bffffffffffffffffffffffffffffffffffffffffffffffffffffffff1916145b806106a957506106a8826115e3565b5b9050919050565b6060600080546106bf90612eb9565b80601f01602080910402602001604051908101604052809291908181526020018280546106eb90612eb9565b80156107385780601f1061070d57610100808354040283529160200191610738565b820191906000526020600020905b81548152906001019060200180831161071b57829003601f168201915b5050505050905090565b600061074d8261164d565b6004600083815260200190815260200160002060009054906101000a900473ffffffffffffffffffffffffffffffffffffffff169050919050565b600061079382610ae0565b90508073ffffffffffffffffffffffffffffffffffffffff168373ffffffffffffffffffffffffffffffffffffffff161415610804576040517f08c379a00000000000000000000000000000000000000000000000000000000081526004016107fb90612f5d565b60405180910390fd5b8073ffffffffffffffffffffffffffffffffffffffff16610823611698565b73ffffffffffffffffffffffffffffffffffffffff16148061085257506108518161084c611698565b6114cc565b5b610891576040517f08c379a000000000000000000000000000000000000000000000000000000000815260040161088890612fef565b60405180910390fd5b61089b83836116a0565b505050565b60008060006060600960008681526020019081526020016000206000815481106108cd576108cc61300f565b5b9060005260206000200160009054906101000a900473ffffffffffffffffffffffffffffffffffffffff16935061090385610ae0565b92506008600086815260200190815260200160002054915061092485611004565b90509193509193565b61093e610938611698565b82611759565b61097d576040517f08c379a0000000000000000000000000000000000000000000000000000000008152600401610974906130b0565b60405180910390fd5b6109888383836117ee565b505050565b7f000000000000000000000000000000000000000000000000000000000000000073ffffffffffffffffffffffffffffffffffffffff163373ffffffffffffffffffffffffffffffffffffffff16146109e557600080fd5b3373ffffffffffffffffffffffffffffffffffffffff166108fc479081150290604051600060405180830381858888f19350505050158015610a2b573d6000803e3d6000fd5b50565b610a4983838360405180602001604052806000815250610fa2565b505050565b610a5782610ae0565b73ffffffffffffffffffffffffffffffffffffffff163373ffffffffffffffffffffffffffffffffffffffff1614610ac4576040517f08c379a0000000000000000000000000000000000000000000000000000000008152600401610abb9061311c565b60405180910390fd5b8060086000848152602001908152602001600020819055505050565b600080610aec83611ae8565b9050600073ffffffffffffffffffffffffffffffffffffffff168173ffffffffffffffffffffffffffffffffffffffff161415610b5e576040517f08c379a0000000000000000000000000000000000000000000000000000000008152600401610b5590613188565b60405180910390fd5b80915050919050565b600060096000838152602001908152602001600020600081548110610b8f57610b8e61300f565b5b9060005260206000200160009054906101000a900473ffffffffffffffffffffffffffffffffffffffff169050919050565b60008073ffffffffffffffffffffffffffffffffffffffff168273ffffffffffffffffffffffffffffffffffffffff161415610c32576040517f08c379a0000000000000000000000000000000000000000000000000000000008152600401610c299061321a565b60405180910390fd5b600360008373ffffffffffffffffffffffffffffffffffffffff1673ffffffffffffffffffffffffffffffffffffffff168152602001908152602001600020549050919050565b60003373ffffffffffffffffffffffffffffffffffffffff163273ffffffffffffffffffffffffffffffffffffffff1614610ce9576040517f08c379a0000000000000000000000000000000000000000000000000000000008152600401610ce090613286565b60405180910390fd5b60008211610d2c576040517f08c379a0000000000000000000000000000000000000000000000000000000008152600401610d2390613318565b60405180910390fd5b60076000815480929190610d3f90613367565b91905055506000600754905060096000828152602001908152602001600020339080600181540180825580915050600190039060005260206000200160009091909190916101000a81548173ffffffffffffffffffffffffffffffffffffffff021916908373ffffffffffffffffffffffffffffffffffffffff160217905550826008600083815260200190815260200160002081905550610de13382611b25565b610deb8185611b43565b83604051610df991906133ec565b6040518091039020813373ffffffffffffffffffffffffffffffffffffffff167f85a66b9141978db9980f7e0ce3b468cebf4f7999f32b23091c5c03e798b1ba7a60405160405180910390a48091505092915050565b6000600754905090565b606060018054610e6890612eb9565b80601f0160208091040260200160405190810160405280929190818152602001828054610e9490612eb9565b8015610ee15780601f10610eb657610100808354040283529160200191610ee1565b820191906000526020600020905b815481529060010190602001808311610ec457829003601f168201915b5050505050905090565b610efd610ef6611698565b8383611bb7565b5050565b606060096000838152602001908152602001600020805480602002602001604051908101604052809291908181526020018280548015610f9657602002820191906000526020600020905b8160009054906101000a900473ffffffffffffffffffffffffffffffffffffffff1673ffffffffffffffffffffffffffffffffffffffff1681526020019060010190808311610f4c575b50505050509050919050565b610fb3610fad611698565b83611759565b610ff2576040517f08c379a0000000000000000000000000000000000000000000000000000000008152600401610fe9906130b0565b60405180910390fd5b610ffe84848484611d24565b50505050565b606061100f8261164d565b600060066000848152602001908152602001600020805461102f90612eb9565b80601f016020809104026020016040519081016040528092919081815260200182805461105b90612eb9565b80156110a85780601f1061107d576101008083540402835291602001916110a8565b820191906000526020600020905b81548152906001019060200180831161108b57829003601f168201915b5050505050905060006110b9611d80565b90506000815114156110cf578192505050611112565b6000825111156111045780826040516020016110ec929190613403565b60405160208183030381529060405292505050611112565b61110d84611d97565b925050505b919050565b3273ffffffffffffffffffffffffffffffffffffffff163373ffffffffffffffffffffffffffffffffffffffff1614611185576040517f08c379a000000000000000000000000000000000000000000000000000000000815260040161117c90613473565b60405180910390fd5b61118e81610ae0565b73ffffffffffffffffffffffffffffffffffffffff163373ffffffffffffffffffffffffffffffffffffffff1614156111fc576040517f08c379a00000000000000000000000000000000000000000000000000000000081526004016111f3906134df565b60405180910390fd5b600060086000838152602001908152602001600020549050600061121f83610ae0565b9050813414611263576040517f08c379a000000000000000000000000000000000000000000000000000000000815260040161125a90613571565b60405180910390fd5b60096000848152602001908152602001600020339080600181540180825580915050600190039060005260206000200160009091909190916101000a81548173ffffffffffffffffffffffffffffffffffffffff021916908373ffffffffffffffffffffffffffffffffffffffff1602179055506000600960008581526020019081526020016000206000815481106112ff576112fe61300f565b5b9060005260206000200160009054906101000a900473ffffffffffffffffffffffffffffffffffffffff1690506000606460618561133d9190613591565b611347919061361a565b905060008273ffffffffffffffffffffffffffffffffffffffff168260405161136f9061367c565b60006040518083038185875af1925050503d80600081146113ac576040519150601f19603f3d011682016040523d82523d6000602084013e6113b1565b606091505b50509050806113bf57600080fd5b6113ca8433886117ee565b3373ffffffffffffffffffffffffffffffffffffffff166113ea87610ae0565b73ffffffffffffffffffffffffffffffffffffffff1614611440576040517f08c379a0000000000000000000000000000000000000000000000000000000008152600401611437906136dd565b60405180910390fd5b3373ffffffffffffffffffffffffffffffffffffffff168473ffffffffffffffffffffffffffffffffffffffff167f89f5adc174562e07c9c9b1cae7109bbecb21cf9d1b2847e550042b8653c54a0e888860405161149f9291906136fd565b60405180910390a3505050505050565b600060086000838152602001908152602001600020549050919050565b6000600560008473ffffffffffffffffffffffffffffffffffffffff1673ffffffffffffffffffffffffffffffffffffffff16815260200190815260200160002060008373ffffffffffffffffffffffffffffffffffffffff1673ffffffffffffffffffffffffffffffffffffffff16815260200190815260200160002060009054906101000a900460ff16905092915050565b60003073ffffffffffffffffffffffffffffffffffffffff166370a08231836040518263ffffffff1660e01b815260040161159b919061288c565b602060405180830381865afa1580156115b8573d6000803e3d6000fd5b505050506040513d601f19601f820116820180604052508101906115dc919061373b565b9050919050565b60007f01ffc9a7000000000000000000000000000000000000000000000000000000007bffffffffffffffffffffffffffffffffffffffffffffffffffffffff1916827bffffffffffffffffffffffffffffffffffffffffffffffffffffffff1916149050919050565b61165681611dff565b611695576040517f08c379a000000000000000000000000000000000000000000000000000000000815260040161168c90613188565b60405180910390fd5b50565b600033905090565b816004600083815260200190815260200160002060006101000a81548173ffffffffffffffffffffffffffffffffffffffff021916908373ffffffffffffffffffffffffffffffffffffffff160217905550808273ffffffffffffffffffffffffffffffffffffffff1661171383610ae0565b73ffffffffffffffffffffffffffffffffffffffff167f8c5be1e5ebec7d5bd14f71427d1e84f3dd0314c0f7b2291e5b200ac8c7c3b92560405160405180910390a45050565b60008061176583610ae0565b90508073ffffffffffffffffffffffffffffffffffffffff168473ffffffffffffffffffffffffffffffffffffffff1614806117a757506117a681856114cc565b5b806117e557508373ffffffffffffffffffffffffffffffffffffffff166117cd84610742565b73ffffffffffffffffffffffffffffffffffffffff16145b91505092915050565b8273ffffffffffffffffffffffffffffffffffffffff1661180e82610ae0565b73ffffffffffffffffffffffffffffffffffffffff1614611864576040517f08c379a000000000000000000000000000000000000000000000000000000000815260040161185b906137da565b60405180910390fd5b600073ffffffffffffffffffffffffffffffffffffffff168273ffffffffffffffffffffffffffffffffffffffff1614156118d4576040517f08c379a00000000000000000000000000000000000000000000000000000000081526004016118cb9061386c565b60405180910390fd5b6118e18383836001611e40565b8273ffffffffffffffffffffffffffffffffffffffff1661190182610ae0565b73ffffffffffffffffffffffffffffffffffffffff1614611957576040517f08c379a000000000000000000000000000000000000000000000000000000000815260040161194e906137da565b60405180910390fd5b6004600082815260200190815260200160002060006101000a81549073ffffffffffffffffffffffffffffffffffffffff02191690556001600360008573ffffffffffffffffffffffffffffffffffffffff1673ffffffffffffffffffffffffffffffffffffffff168152602001908152602001600020600082825403925050819055506001600360008473ffffffffffffffffffffffffffffffffffffffff1673ffffffffffffffffffffffffffffffffffffffff16815260200190815260200160002060008282540192505081905550816002600083815260200190815260200160002060006101000a81548173ffffffffffffffffffffffffffffffffffffffff021916908373ffffffffffffffffffffffffffffffffffffffff160217905550808273ffffffffffffffffffffffffffffffffffffffff168473ffffffffffffffffffffffffffffffffffffffff167fddf252ad1be2c89b69c2b068fc378daa952ba7f163c4a11628f55a4df523b3ef60405160405180910390a4611ae38383836001611f66565b505050565b60006002600083815260200190815260200160002060009054906101000a900473ffffffffffffffffffffffffffffffffffffffff169050919050565b611b3f828260405180602001604052806000815250611f6c565b5050565b611b4c82611dff565b611b8b576040517f08c379a0000000000000000000000000000000000000000000000000000000008152600401611b82906138fe565b60405180910390fd5b80600660008481526020019081526020016000209080519060200190611bb29291906125bb565b505050565b8173ffffffffffffffffffffffffffffffffffffffff168373ffffffffffffffffffffffffffffffffffffffff161415611c26576040517f08c379a0000000000000000000000000000000000000000000000000000000008152600401611c1d9061396a565b60405180910390fd5b80600560008573ffffffffffffffffffffffffffffffffffffffff1673ffffffffffffffffffffffffffffffffffffffff16815260200190815260200160002060008473ffffffffffffffffffffffffffffffffffffffff1673ffffffffffffffffffffffffffffffffffffffff16815260200190815260200160002060006101000a81548160ff0219169083151502179055508173ffffffffffffffffffffffffffffffffffffffff168373ffffffffffffffffffffffffffffffffffffffff167f17307eab39ab6107e8899845ad3d59bd9653f200f220920489ca2b5937696c3183604051611d179190612712565b60405180910390a3505050565b611d2f8484846117ee565b611d3b84848484611fc7565b611d7a576040517f08c379a0000000000000000000000000000000000000000000000000000000008152600401611d71906139fc565b60405180910390fd5b50505050565b606060405180602001604052806000815250905090565b6060611da28261164d565b6000611dac611d80565b90506000815111611dcc5760405180602001604052806000815250611df7565b80611dd68461214f565b604051602001611de7929190613403565b6040516020818303038152906040525b915050919050565b60008073ffffffffffffffffffffffffffffffffffffffff16611e2183611ae8565b73ffffffffffffffffffffffffffffffffffffffff1614159050919050565b6001811115611f6057600073ffffffffffffffffffffffffffffffffffffffff168473ffffffffffffffffffffffffffffffffffffffff1614611ed45780600360008673ffffffffffffffffffffffffffffffffffffffff1673ffffffffffffffffffffffffffffffffffffffff1681526020019081526020016000206000828254611ecc9190613a1c565b925050819055505b600073ffffffffffffffffffffffffffffffffffffffff168373ffffffffffffffffffffffffffffffffffffffff1614611f5f5780600360008573ffffffffffffffffffffffffffffffffffffffff1673ffffffffffffffffffffffffffffffffffffffff1681526020019081526020016000206000828254611f579190613a50565b925050819055505b5b50505050565b50505050565b611f768383612227565b611f836000848484611fc7565b611fc2576040517f08c379a0000000000000000000000000000000000000000000000000000000008152600401611fb9906139fc565b60405180910390fd5b505050565b6000611fe88473ffffffffffffffffffffffffffffffffffffffff16612445565b15612142578373ffffffffffffffffffffffffffffffffffffffff1663150b7a02612011611698565b8786866040518563ffffffff1660e01b81526004016120339493929190613afb565b6020604051808303816000875af192505050801561206f57506040513d601f19601f8201168201806040525081019061206c9190613b5c565b60015b6120f2573d806000811461209f576040519150601f19603f3d011682016040523d82523d6000602084013e6120a4565b606091505b506000815114156120ea576040517f08c379a00000000000000000000000000000000000000000000000000000000081526004016120e1906139fc565b60405180910390fd5b805181602001fd5b63150b7a0260e01b7bffffffffffffffffffffffffffffffffffffffffffffffffffffffff1916817bffffffffffffffffffffffffffffffffffffffffffffffffffffffff191614915050612147565b600190505b949350505050565b60606000600161215e84612468565b01905060008167ffffffffffffffff81111561217d5761217c612a53565b5b6040519080825280601f01601f1916602001820160405280156121af5781602001600182028036833780820191505090505b509050600082602001820190505b60011561221c578080600190039150507f3031323334353637383961626364656600000000000000000000000000000000600a86061a8153600a8581612206576122056135eb565b5b04945060008514156122175761221c565b6121bd565b819350505050919050565b600073ffffffffffffffffffffffffffffffffffffffff168273ffffffffffffffffffffffffffffffffffffffff161415612297576040517f08c379a000000000000000000000000000000000000000000000000000000000815260040161228e90613bd5565b60405180910390fd5b6122a081611dff565b156122e0576040517f08c379a00000000000000000000000000000000000000000000000000000000081526004016122d790613c41565b60405180910390fd5b6122ee600083836001611e40565b6122f781611dff565b15612337576040517f08c379a000000000000000000000000000000000000000000000000000000000815260040161232e90613c41565b60405180910390fd5b6001600360008473ffffffffffffffffffffffffffffffffffffffff1673ffffffffffffffffffffffffffffffffffffffff16815260200190815260200160002060008282540192505081905550816002600083815260200190815260200160002060006101000a81548173ffffffffffffffffffffffffffffffffffffffff021916908373ffffffffffffffffffffffffffffffffffffffff160217905550808273ffffffffffffffffffffffffffffffffffffffff16600073ffffffffffffffffffffffffffffffffffffffff167fddf252ad1be2c89b69c2b068fc378daa952ba7f163c4a11628f55a4df523b3ef60405160405180910390a4612441600083836001611f66565b5050565b6000808273ffffffffffffffffffffffffffffffffffffffff163b119050919050565b600080600090507a184f03e93ff9f4daa797ed6e38ed64bf6a1f01000000000000000083106124c6577a184f03e93ff9f4daa797ed6e38ed64bf6a1f01000000000000000083816124bc576124bb6135eb565b5b0492506040810190505b6d04ee2d6d415b85acef81000000008310612503576d04ee2d6d415b85acef810000000083816124f9576124f86135eb565b5b0492506020810190505b662386f26fc10000831061253257662386f26fc100008381612528576125276135eb565b5b0492506010810190505b6305f5e100831061255b576305f5e1008381612551576125506135eb565b5b0492506008810190505b6127108310612580576127108381612576576125756135eb565b5b0492506004810190505b606483106125a35760648381612599576125986135eb565b5b0492506002810190505b600a83106125b2576001810190505b80915050919050565b8280546125c790612eb9565b90600052602060002090601f0160209004810192826125e95760008555612630565b82601f1061260257805160ff1916838001178555612630565b82800160010185558215612630579182015b8281111561262f578251825591602001919060010190612614565b5b50905061263d9190612641565b5090565b5b8082111561265a576000816000905550600101612642565b5090565b6000604051905090565b600080fd5b600080fd5b60007fffffffff0000000000000000000000000000000000000000000000000000000082169050919050565b6126a781612672565b81146126b257600080fd5b50565b6000813590506126c48161269e565b92915050565b6000602082840312156126e0576126df612668565b5b60006126ee848285016126b5565b91505092915050565b60008115159050919050565b61270c816126f7565b82525050565b60006020820190506127276000830184612703565b92915050565b600081519050919050565b600082825260208201905092915050565b60005b8381101561276757808201518184015260208101905061274c565b83811115612776576000848401525b50505050565b6000601f19601f8301169050919050565b60006127988261272d565b6127a28185612738565b93506127b2818560208601612749565b6127bb8161277c565b840191505092915050565b600060208201905081810360008301526127e0818461278d565b905092915050565b6000819050919050565b6127fb816127e8565b811461280657600080fd5b50565b600081359050612818816127f2565b92915050565b60006020828403121561283457612833612668565b5b600061284284828501612809565b91505092915050565b600073ffffffffffffffffffffffffffffffffffffffff82169050919050565b60006128768261284b565b9050919050565b6128868161286b565b82525050565b60006020820190506128a1600083018461287d565b92915050565b6128b08161286b565b81146128bb57600080fd5b50565b6000813590506128cd816128a7565b92915050565b600080604083850312156128ea576128e9612668565b5b60006128f8858286016128be565b925050602061290985828601612809565b9150509250929050565b61291c816127e8565b82525050565b6000608082019050612937600083018761287d565b612944602083018661287d565b6129516040830185612913565b8181036060830152612963818461278d565b905095945050505050565b60008060006060848603121561298757612986612668565b5b6000612995868287016128be565b93505060206129a6868287016128be565b92505060406129b786828701612809565b9150509250925092565b600080604083850312156129d8576129d7612668565b5b60006129e685828601612809565b92505060206129f785828601612809565b9150509250929050565b600060208284031215612a1757612a16612668565b5b6000612a25848285016128be565b91505092915050565b6000602082019050612a436000830184612913565b92915050565b600080fd5b600080fd5b7f4e487b7100000000000000000000000000000000000000000000000000000000600052604160045260246000fd5b612a8b8261277c565b810181811067ffffffffffffffff82111715612aaa57612aa9612a53565b5b80604052505050565b6000612abd61265e565b9050612ac98282612a82565b919050565b600067ffffffffffffffff821115612ae957612ae8612a53565b5b612af28261277c565b9050602081019050919050565b82818337600083830152505050565b6000612b21612b1c84612ace565b612ab3565b905082815260208101848484011115612b3d57612b3c612a4e565b5b612b48848285612aff565b509392505050565b600082601f830112612b6557612b64612a49565b5b8135612b75848260208601612b0e565b91505092915050565b60008060408385031215612b9557612b94612668565b5b600083013567ffffffffffffffff811115612bb357612bb261266d565b5b612bbf85828601612b50565b9250506020612bd085828601612809565b9150509250929050565b612be3816126f7565b8114612bee57600080fd5b50565b600081359050612c0081612bda565b92915050565b60008060408385031215612c1d57612c1c612668565b5b6000612c2b858286016128be565b9250506020612c3c85828601612bf1565b9150509250929050565b600081519050919050565b600082825260208201905092915050565b6000819050602082019050919050565b612c7b8161286b565b82525050565b6000612c8d8383612c72565b60208301905092915050565b6000602082019050919050565b6000612cb182612c46565b612cbb8185612c51565b9350612cc683612c62565b8060005b83811015612cf7578151612cde8882612c81565b9750612ce983612c99565b925050600181019050612cca565b5085935050505092915050565b60006020820190508181036000830152612d1e8184612ca6565b905092915050565b600067ffffffffffffffff821115612d4157612d40612a53565b5b612d4a8261277c565b9050602081019050919050565b6000612d6a612d6584612d26565b612ab3565b905082815260208101848484011115612d8657612d85612a4e565b5b612d91848285612aff565b509392505050565b600082601f830112612dae57612dad612a49565b5b8135612dbe848260208601612d57565b91505092915050565b60008060008060808587031215612de157612de0612668565b5b6000612def878288016128be565b9450506020612e00878288016128be565b9350506040612e1187828801612809565b925050606085013567ffffffffffffffff811115612e3257612e3161266d565b5b612e3e87828801612d99565b91505092959194509250565b60008060408385031215612e6157612e60612668565b5b6000612e6f858286016128be565b9250506020612e80858286016128be565b9150509250929050565b7f4e487b7100000000000000000000000000000000000000000000000000000000600052602260045260246000fd5b60006002820490506001821680612ed157607f821691505b60208210811415612ee557612ee4612e8a565b5b50919050565b7f4552433732313a20617070726f76616c20746f2063757272656e74206f776e6560008201527f7200000000000000000000000000000000000000000000000000000000000000602082015250565b6000612f47602183612738565b9150612f5282612eeb565b604082019050919050565b60006020820190508181036000830152612f7681612f3a565b9050919050565b7f4552433732313a20617070726f76652063616c6c6572206973206e6f7420746f60008201527f6b656e206f776e6572206f7220617070726f76656420666f7220616c6c000000602082015250565b6000612fd9603d83612738565b9150612fe482612f7d565b604082019050919050565b6000602082019050818103600083015261300881612fcc565b9050919050565b7f4e487b7100000000000000000000000000000000000000000000000000000000600052603260045260246000fd5b7f4552433732313a2063616c6c6572206973206e6f7420746f6b656e206f776e6560008201527f72206f7220617070726f76656400000000000000000000000000000000000000602082015250565b600061309a602d83612738565b91506130a58261303e565b604082019050919050565b600060208201905081810360008301526130c98161308d565b9050919050565b7f4f776e657220556e617574686f72697365640000000000000000000000000000600082015250565b6000613106601283612738565b9150613111826130d0565b602082019050919050565b60006020820190508181036000830152613135816130f9565b9050919050565b7f4552433732313a20696e76616c696420746f6b656e2049440000000000000000600082015250565b6000613172601883612738565b915061317d8261313c565b602082019050919050565b600060208201905081810360008301526131a181613165565b9050919050565b7f4552433732313a2061646472657373207a65726f206973206e6f74206120766160008201527f6c6964206f776e65720000000000000000000000000000000000000000000000602082015250565b6000613204602983612738565b915061320f826131a8565b604082019050919050565b60006020820190508181036000830152613233816131f7565b9050919050565b7f6f6e6c7920627920454f412063616e206d696e74204e46540000000000000000600082015250565b6000613270601883612738565b915061327b8261323a565b602082019050919050565b6000602082019050818103600083015261329f81613263565b9050919050565b7f73686f756c6420626520736f6d652076616c7561626c65207072696365206f6660008201527f206e667400000000000000000000000000000000000000000000000000000000602082015250565b6000613302602483612738565b915061330d826132a6565b604082019050919050565b60006020820190508181036000830152613331816132f5565b9050919050565b7f4e487b7100000000000000000000000000000000000000000000000000000000600052601160045260246000fd5b6000613372826127e8565b91507fffffffffffffffffffffffffffffffffffffffffffffffffffffffffffffffff8214156133a5576133a4613338565b5b600182019050919050565b600081905092915050565b60006133c68261272d565b6133d081856133b0565b93506133e0818560208601612749565b80840191505092915050565b60006133f882846133bb565b915081905092915050565b600061340f82856133bb565b915061341b82846133bb565b91508190509392505050565b7f6f6e6c7920454f412063616e20696e7472656374000000000000000000000000600082015250565b600061345d601483612738565b915061346882613427565b602082019050919050565b6000602082019050818103600083015261348c81613450565b9050919050565b7f796f752063616e277420627579206f776e206e66740000000000000000000000600082015250565b60006134c9601583612738565b91506134d482613493565b602082019050919050565b600060208201905081810360008301526134f8816134bc565b9050919050565b7f506c65617365207375626d6974207468652061736b696e67207072696365206960008201527f6e206f7264657220746f20636f6d706c65746520746865207075726368617365602082015250565b600061355b604083612738565b9150613566826134ff565b604082019050919050565b6000602082019050818103600083015261358a8161354e565b9050919050565b600061359c826127e8565b91506135a7836127e8565b9250817fffffffffffffffffffffffffffffffffffffffffffffffffffffffffffffffff04831182151516156135e0576135df613338565b5b828202905092915050565b7f4e487b7100000000000000000000000000000000000000000000000000000000600052601260045260246000fd5b6000613625826127e8565b9150613630836127e8565b9250826136405761363f6135eb565b5b828204905092915050565b600081905092915050565b50565b600061366660008361364b565b915061367182613656565b600082019050919050565b600061368782613659565b9150819050919050565b7f6e6f74207472616e736672656400000000000000000000000000000000000000600082015250565b60006136c7600d83612738565b91506136d282613691565b602082019050919050565b600060208201905081810360008301526136f6816136ba565b9050919050565b60006040820190506137126000830185612913565b61371f6020830184612913565b9392505050565b600081519050613735816127f2565b92915050565b60006020828403121561375157613750612668565b5b600061375f84828501613726565b91505092915050565b7f4552433732313a207472616e736665722066726f6d20696e636f72726563742060008201527f6f776e6572000000000000000000000000000000000000000000000000000000602082015250565b60006137c4602583612738565b91506137cf82613768565b604082019050919050565b600060208201905081810360008301526137f3816137b7565b9050919050565b7f4552433732313a207472616e7366657220746f20746865207a65726f2061646460008201527f7265737300000000000000000000000000000000000000000000000000000000602082015250565b6000613856602483612738565b9150613861826137fa565b604082019050919050565b6000602082019050818103600083015261388581613849565b9050919050565b7f45524337323155524953746f726167653a2055524920736574206f66206e6f6e60008201527f6578697374656e7420746f6b656e000000000000000000000000000000000000602082015250565b60006138e8602e83612738565b91506138f38261388c565b604082019050919050565b60006020820190508181036000830152613917816138db565b9050919050565b7f4552433732313a20617070726f766520746f2063616c6c657200000000000000600082015250565b6000613954601983612738565b915061395f8261391e565b602082019050919050565b6000602082019050818103600083015261398381613947565b9050919050565b7f4552433732313a207472616e7366657220746f206e6f6e20455243373231526560008201527f63656976657220696d706c656d656e7465720000000000000000000000000000602082015250565b60006139e6603283612738565b91506139f18261398a565b604082019050919050565b60006020820190508181036000830152613a15816139d9565b9050919050565b6000613a27826127e8565b9150613a32836127e8565b925082821015613a4557613a44613338565b5b828203905092915050565b6000613a5b826127e8565b9150613a66836127e8565b9250827fffffffffffffffffffffffffffffffffffffffffffffffffffffffffffffffff03821115613a9b57613a9a613338565b5b828201905092915050565b600081519050919050565b600082825260208201905092915050565b6000613acd82613aa6565b613ad78185613ab1565b9350613ae7818560208601612749565b613af08161277c565b840191505092915050565b6000608082019050613b10600083018761287d565b613b1d602083018661287d565b613b2a6040830185612913565b8181036060830152613b3c8184613ac2565b905095945050505050565b600081519050613b568161269e565b92915050565b600060208284031215613b7257613b71612668565b5b6000613b8084828501613b47565b91505092915050565b7f4552433732313a206d696e7420746f20746865207a65726f2061646472657373600082015250565b6000613bbf602083612738565b9150613bca82613b89565b602082019050919050565b60006020820190508181036000830152613bee81613bb2565b9050919050565b7f4552433732313a20746f6b656e20616c7265616479206d696e74656400000000600082015250565b6000613c2b601c83612738565b9150613c3682613bf5565b602082019050919050565b60006020820190508181036000830152613c5a81613c1e565b905091905056fea26469706673582212200f26ae97b6a0fc5bb3fa83a27fd820be0a9c5b31fc099ec7f034f544f996054364736f6c634300080a0033",
  "linkReferences": {},
  "deployedLinkReferences": {}
}