{
  "_format": "hh-sol-artifact-1",
  "contractName": "NFTmarketplace",
  "sourceName": "contracts/NftMarket.sol",
  "abi": [
    {
      "inputs": [],
      "stateMutability": "nonpayable",
      "type": "constructor"
    },
    {
      "anonymous": false,
      "inputs": [
        {
          "indexed": true,
          "internalType": "address",
          "name": "owner",
          "type": "address"
        },
        {
          "indexed": true,
          "internalType": "address",
          "name": "approved",
          "type": "address"
        },
        {
          "indexed": true,
          "internalType": "uint256",
          "name": "tokenId",
          "type": "uint256"
        }
      ],
      "name": "Approval",
      "type": "event"
    },
    {
      "anonymous": false,
      "inputs": [
        {
          "indexed": true,
          "internalType": "address",
          "name": "owner",
          "type": "address"
        },
        {
          "indexed": true,
          "internalType": "address",
          "name": "operator",
          "type": "address"
        },
        {
          "indexed": false,
          "internalType": "bool",
          "name": "approved",
          "type": "bool"
        }
      ],
      "name": "ApprovalForAll",
      "type": "event"
    },
    {
      "anonymous": false,
      "inputs": [
        {
          "indexed": true,
          "internalType": "address",
          "name": "from",
          "type": "address"
        },
        {
          "indexed": true,
          "internalType": "address",
          "name": "to",
          "type": "address"
        },
        {
          "indexed": false,
          "internalType": "uint256",
          "name": "tokenId",
          "type": "uint256"
        },
        {
          "indexed": false,
          "internalType": "uint256",
          "name": "price",
          "type": "uint256"
        }
      ],
      "name": "Buy",
      "type": "event"
    },
    {
      "anonymous": false,
      "inputs": [
        {
          "indexed": true,
          "internalType": "address",
          "name": "creator",
          "type": "address"
        },
        {
          "indexed": true,
          "internalType": "uint256",
          "name": "tokenId",
          "type": "uint256"
        },
        {
          "indexed": true,
          "internalType": "string",
          "name": "tokenURI",
          "type": "string"
        }
      ],
      "name": "Mint",
      "type": "event"
    },
    {
      "anonymous": false,
      "inputs": [
        {
          "indexed": true,
          "internalType": "address",
          "name": "from",
          "type": "address"
        },
        {
          "indexed": true,
          "internalType": "address",
          "name": "to",
          "type": "address"
        },
        {
          "indexed": true,
          "internalType": "uint256",
          "name": "tokenId",
          "type": "uint256"
        }
      ],
      "name": "Transfer",
      "type": "event"
    },
    {
      "inputs": [
        {
          "internalType": "uint256",
          "name": "tokenId",
          "type": "uint256"
        }
      ],
      "name": "GetCreatorOfNft",
      "outputs": [
        {
          "internalType": "address",
          "name": "",
          "type": "address"
        }
      ],
      "stateMutability": "view",
      "type": "function"
    },
    {
      "inputs": [],
      "name": "GetCurrentToken",
      "outputs": [
        {
          "internalType": "uint256",
          "name": "",
          "type": "uint256"
        }
      ],
      "stateMutability": "view",
      "type": "function"
    },
    {
      "inputs": [
        {
          "internalType": "uint256",
          "name": "tokenId",
          "type": "uint256"
        }
      ],
      "name": "GetNFTDetails",
      "outputs": [
        {
          "internalType": "address",
          "name": "creator",
          "type": "address"
        },
        {
          "internalType": "address",
          "name": "owner",
          "type": "address"
        },
        {
          "internalType": "uint256",
          "name": "price",
          "type": "uint256"
        },
        {
          "internalType": "string",
          "name": "IpfsHash",
          "type": "string"
        }
      ],
      "stateMutability": "view",
      "type": "function"
    },
    {
      "inputs": [
        {
          "internalType": "uint256",
          "name": "tokenId",
          "type": "uint256"
        }
      ],
      "name": "GetNftPrice",
      "outputs": [
        {
          "internalType": "uint256",
          "name": "",
          "type": "uint256"
        }
      ],
      "stateMutability": "view",
      "type": "function"
    },
    {
      "inputs": [
        {
          "internalType": "uint256",
          "name": "tokenId",
          "type": "uint256"
        }
      ],
      "name": "GetTransactionHistory",
      "outputs": [
        {
          "internalType": "address[]",
          "name": "",
          "type": "address[]"
        }
      ],
      "stateMutability": "view",
      "type": "function"
    },
    {
      "inputs": [
        {
          "internalType": "address",
          "name": "user",
          "type": "address"
        }
      ],
      "name": "MyTotalNft",
      "outputs": [
        {
          "internalType": "uint256",
          "name": "",
          "type": "uint256"
        }
      ],
      "stateMutability": "view",
      "type": "function"
    },
    {
      "inputs": [
        {
          "internalType": "uint256",
          "name": "tokenId",
          "type": "uint256"
        },
        {
          "internalType": "uint256",
          "name": "price",
          "type": "uint256"
        }
      ],
      "name": "UpdateNftPrice",
      "outputs": [],
      "stateMutability": "nonpayable",
      "type": "function"
    },
    {
      "inputs": [
        {
          "internalType": "address",
          "name": "to",
          "type": "address"
        },
        {
          "internalType": "uint256",
          "name": "tokenId",
          "type": "uint256"
        }
      ],
      "name": "approve",
      "outputs": [],
      "stateMutability": "nonpayable",
      "type": "function"
    },
    {
      "inputs": [
        {
          "internalType": "address",
          "name": "owner",
          "type": "address"
        }
      ],
      "name": "balanceOf",
      "outputs": [
        {
          "internalType": "uint256",
          "name": "",
          "type": "uint256"
        }
      ],
      "stateMutability": "view",
      "type": "function"
    },
    {
      "inputs": [
        {
          "internalType": "uint256",
          "name": "tokenId",
          "type": "uint256"
        }
      ],
      "name": "buy",
      "outputs": [],
      "stateMutability": "payable",
      "type": "function"
    },
    {
      "inputs": [
        {
          "internalType": "string",
          "name": "tokenURI",
          "type": "string"
        },
        {
          "internalType": "uint256",
          "name": "price",
          "type": "uint256"
        },
        {
          "internalType": "uint8",
          "name": "royalityfee",
          "type": "uint8"
        }
      ],
      "name": "creatToken",
      "outputs": [
        {
          "internalType": "uint256",
          "name": "",
          "type": "uint256"
        }
      ],
      "stateMutability": "nonpayable",
      "type": "function"
    },
    {
      "inputs": [
        {
          "internalType": "uint256",
          "name": "tokenId",
          "type": "uint256"
        }
      ],
      "name": "getApproved",
      "outputs": [
        {
          "internalType": "address",
          "name": "",
          "type": "address"
        }
      ],
      "stateMutability": "view",
      "type": "function"
    },
    {
      "inputs": [
        {
          "internalType": "uint256",
          "name": "tokenId",
          "type": "uint256"
        }
      ],
      "name": "getRoyalityFee",
      "outputs": [
        {
          "internalType": "uint8",
          "name": "",
          "type": "uint8"
        }
      ],
      "stateMutability": "view",
      "type": "function"
    },
    {
      "inputs": [
        {
          "internalType": "address",
          "name": "owner",
          "type": "address"
        },
        {
          "internalType": "address",
          "name": "operator",
          "type": "address"
        }
      ],
      "name": "isApprovedForAll",
      "outputs": [
        {
          "internalType": "bool",
          "name": "",
          "type": "bool"
        }
      ],
      "stateMutability": "view",
      "type": "function"
    },
    {
      "inputs": [],
      "name": "name",
      "outputs": [
        {
          "internalType": "string",
          "name": "",
          "type": "string"
        }
      ],
      "stateMutability": "view",
      "type": "function"
    },
    {
      "inputs": [
        {
          "internalType": "uint256",
          "name": "tokenId",
          "type": "uint256"
        }
      ],
      "name": "ownerOf",
      "outputs": [
        {
          "internalType": "address",
          "name": "",
          "type": "address"
        }
      ],
      "stateMutability": "view",
      "type": "function"
    },
    {
      "inputs": [
        {
          "internalType": "address",
          "name": "from",
          "type": "address"
        },
        {
          "internalType": "address",
          "name": "to",
          "type": "address"
        },
        {
          "internalType": "uint256",
          "name": "tokenId",
          "type": "uint256"
        }
      ],
      "name": "safeTransferFrom",
      "outputs": [],
      "stateMutability": "nonpayable",
      "type": "function"
    },
    {
      "inputs": [
        {
          "internalType": "address",
          "name": "from",
          "type": "address"
        },
        {
          "internalType": "address",
          "name": "to",
          "type": "address"
        },
        {
          "internalType": "uint256",
          "name": "tokenId",
          "type": "uint256"
        },
        {
          "internalType": "bytes",
          "name": "data",
          "type": "bytes"
        }
      ],
      "name": "safeTransferFrom",
      "outputs": [],
      "stateMutability": "nonpayable",
      "type": "function"
    },
    {
      "inputs": [
        {
          "internalType": "address",
          "name": "operator",
          "type": "address"
        },
        {
          "internalType": "bool",
          "name": "approved",
          "type": "bool"
        }
      ],
      "name": "setApprovalForAll",
      "outputs": [],
      "stateMutability": "nonpayable",
      "type": "function"
    },
    {
      "inputs": [
        {
          "internalType": "bytes4",
          "name": "interfaceId",
          "type": "bytes4"
        }
      ],
      "name": "supportsInterface",
      "outputs": [
        {
          "internalType": "bool",
          "name": "",
          "type": "bool"
        }
      ],
      "stateMutability": "view",
      "type": "function"
    },
    {
      "inputs": [],
      "name": "symbol",
      "outputs": [
        {
          "internalType": "string",
          "name": "",
          "type": "string"
        }
      ],
      "stateMutability": "view",
      "type": "function"
    },
    {
      "inputs": [
        {
          "internalType": "uint256",
          "name": "tokenId",
          "type": "uint256"
        }
      ],
      "name": "tokenURI",
      "outputs": [
        {
          "internalType": "string",
          "name": "",
          "type": "string"
        }
      ],
      "stateMutability": "view",
      "type": "function"
    },
    {
      "inputs": [
        {
          "internalType": "address",
          "name": "from",
          "type": "address"
        },
        {
          "internalType": "address",
          "name": "to",
          "type": "address"
        },
        {
          "internalType": "uint256",
          "name": "tokenId",
          "type": "uint256"
        }
      ],
      "name": "transferFrom",
      "outputs": [],
      "stateMutability": "nonpayable",
      "type": "function"
    },
    {
      "inputs": [],
      "name": "withdraw",
      "outputs": [],
      "stateMutability": "nonpayable",
      "type": "function"
    }
  ],
  "bytecode": "0x60a06040523480156200001157600080fd5b506040518060400160405280600881526020017f4e617066746465760000000000000000000000000000000000000000000000008152506040518060400160405280600581526020017f4e41504654000000000000000000000000000000000000000000000000000000815250816000908051906020019062000096929190620000ec565b508060019080519060200190620000af929190620000ec565b5050503373ffffffffffffffffffffffffffffffffffffffff1660808173ffffffffffffffffffffffffffffffffffffffff168152505062000201565b828054620000fa90620001cb565b90600052602060002090601f0160209004810192826200011e57600085556200016a565b82601f106200013957805160ff19168380011785556200016a565b828001600101855582156200016a579182015b82811115620001695782518255916020019190600101906200014c565b5b5090506200017991906200017d565b5090565b5b80821115620001985760008160009055506001016200017e565b5090565b7f4e487b7100000000000000000000000000000000000000000000000000000000600052602260045260246000fd5b60006002820490506001821680620001e457607f821691505b60208210811415620001fb57620001fa6200019c565b5b50919050565b608051613e636200021d6000396000610a010152613e636000f3fe60806040526004361061014b5760003560e01c806370a08231116100b6578063bd46a6431161006f578063bd46a643146104c9578063c87b56dd14610506578063d96a094a14610543578063e9406b341461055f578063e985e9c51461059c578063fd12f789146105d95761014b565b806370a08231146103a75780638d610c67146103e457806395d89b411461040f578063a22cb4651461043a578063b5ce14a414610463578063b88d4fde146104a05761014b565b8063300929eb11610108578063300929eb146102875780633ccfd60b146102c457806342842e0e146102db5780634414b5a2146103045780636352211e1461032d5780636e2a10d31461036a5761014b565b806301ffc9a71461015057806306fdde031461018d578063081812fc146101b8578063095ea7b3146101f55780632293922f1461021e57806323b872dd1461025e575b600080fd5b34801561015c57600080fd5b5061017760048036038101906101729190612820565b610616565b6040516101849190612868565b60405180910390f35b34801561019957600080fd5b506101a26106f8565b6040516101af919061291c565b60405180910390f35b3480156101c457600080fd5b506101df60048036038101906101da9190612974565b61078a565b6040516101ec91906129e2565b60405180910390f35b34801561020157600080fd5b5061021c60048036038101906102179190612a29565b6107d0565b005b34801561022a57600080fd5b5061024560048036038101906102409190612974565b6108e8565b6040516102559493929190612a78565b60405180910390f35b34801561026a57600080fd5b5061028560048036038101906102809190612ac4565b610975565b005b34801561029357600080fd5b506102ae60048036038101906102a99190612974565b6109d5565b6040516102bb9190612b33565b60405180910390f35b3480156102d057600080fd5b506102d96109ff565b005b3480156102e757600080fd5b5061030260048036038101906102fd9190612ac4565b610aa0565b005b34801561031057600080fd5b5061032b60048036038101906103269190612b4e565b610ac0565b005b34801561033957600080fd5b50610354600480360381019061034f9190612974565b610b52565b60405161036191906129e2565b60405180910390f35b34801561037657600080fd5b50610391600480360381019061038c9190612974565b610bd9565b60405161039e91906129e2565b60405180910390f35b3480156103b357600080fd5b506103ce60048036038101906103c99190612b8e565b610c33565b6040516103db9190612bbb565b60405180910390f35b3480156103f057600080fd5b506103f9610ceb565b6040516104069190612bbb565b60405180910390f35b34801561041b57600080fd5b50610424610cf5565b604051610431919061291c565b60405180910390f35b34801561044657600080fd5b50610461600480360381019061045c9190612c02565b610d87565b005b34801561046f57600080fd5b5061048a60048036038101906104859190612974565b610d9d565b6040516104979190612d00565b60405180910390f35b3480156104ac57600080fd5b506104c760048036038101906104c29190612e57565b610e3e565b005b3480156104d557600080fd5b506104f060048036038101906104eb9190612fa7565b610ea0565b6040516104fd9190612bbb565b60405180910390f35b34801561051257600080fd5b5061052d60048036038101906105289190612974565b6110a3565b60405161053a919061291c565b60405180910390f35b61055d60048036038101906105589190612974565b6111b6565b005b34801561056b57600080fd5b5061058660048036038101906105819190612974565b611605565b6040516105939190612bbb565b60405180910390f35b3480156105a857600080fd5b506105c360048036038101906105be9190613016565b611622565b6040516105d09190612868565b60405180910390f35b3480156105e557600080fd5b5061060060048036038101906105fb9190612b8e565b6116b6565b60405161060d9190612bbb565b60405180910390f35b60007f80ac58cd000000000000000000000000000000000000000000000000000000007bffffffffffffffffffffffffffffffffffffffffffffffffffffffff1916827bffffffffffffffffffffffffffffffffffffffffffffffffffffffff191614806106e157507f5b5e139f000000000000000000000000000000000000000000000000000000007bffffffffffffffffffffffffffffffffffffffffffffffffffffffff1916827bffffffffffffffffffffffffffffffffffffffffffffffffffffffff1916145b806106f157506106f082611739565b5b9050919050565b60606000805461070790613085565b80601f016020809104026020016040519081016040528092919081815260200182805461073390613085565b80156107805780601f1061075557610100808354040283529160200191610780565b820191906000526020600020905b81548152906001019060200180831161076357829003601f168201915b5050505050905090565b6000610795826117a3565b6004600083815260200190815260200160002060009054906101000a900473ffffffffffffffffffffffffffffffffffffffff169050919050565b60006107db82610b52565b90508073ffffffffffffffffffffffffffffffffffffffff168373ffffffffffffffffffffffffffffffffffffffff16141561084c576040517f08c379a000000000000000000000000000000000000000000000000000000000815260040161084390613129565b60405180910390fd5b8073ffffffffffffffffffffffffffffffffffffffff1661086b6117ee565b73ffffffffffffffffffffffffffffffffffffffff16148061089a5750610899816108946117ee565b611622565b5b6108d9576040517f08c379a00000000000000000000000000000000000000000000000000000000081526004016108d0906131bb565b60405180910390fd5b6108e383836117f6565b505050565b60008060006060600a6000868152602001908152602001600020600081548110610915576109146131db565b5b9060005260206000200160009054906101000a900473ffffffffffffffffffffffffffffffffffffffff16935061094b85610b52565b92506008600086815260200190815260200160002054915061096c856110a3565b90509193509193565b6109866109806117ee565b826118af565b6109c5576040517f08c379a00000000000000000000000000000000000000000000000000000000081526004016109bc9061327c565b60405180910390fd5b6109d0838383611944565b505050565b60006009600083815260200190815260200160002060009054906101000a900460ff169050919050565b7f000000000000000000000000000000000000000000000000000000000000000073ffffffffffffffffffffffffffffffffffffffff163373ffffffffffffffffffffffffffffffffffffffff1614610a5757600080fd5b3373ffffffffffffffffffffffffffffffffffffffff166108fc479081150290604051600060405180830381858888f19350505050158015610a9d573d6000803e3d6000fd5b50565b610abb83838360405180602001604052806000815250610e3e565b505050565b610ac982610b52565b73ffffffffffffffffffffffffffffffffffffffff163373ffffffffffffffffffffffffffffffffffffffff1614610b36576040517f08c379a0000000000000000000000000000000000000000000000000000000008152600401610b2d906132e8565b60405180910390fd5b8060086000848152602001908152602001600020819055505050565b600080610b5e83611c3e565b9050600073ffffffffffffffffffffffffffffffffffffffff168173ffffffffffffffffffffffffffffffffffffffff161415610bd0576040517f08c379a0000000000000000000000000000000000000000000000000000000008152600401610bc790613354565b60405180910390fd5b80915050919050565b6000600a6000838152602001908152602001600020600081548110610c0157610c006131db565b5b9060005260206000200160009054906101000a900473ffffffffffffffffffffffffffffffffffffffff169050919050565b60008073ffffffffffffffffffffffffffffffffffffffff168273ffffffffffffffffffffffffffffffffffffffff161415610ca4576040517f08c379a0000000000000000000000000000000000000000000000000000000008152600401610c9b906133e6565b60405180910390fd5b600360008373ffffffffffffffffffffffffffffffffffffffff1673ffffffffffffffffffffffffffffffffffffffff168152602001908152602001600020549050919050565b6000600754905090565b606060018054610d0490613085565b80601f0160208091040260200160405190810160405280929190818152602001828054610d3090613085565b8015610d7d5780601f10610d5257610100808354040283529160200191610d7d565b820191906000526020600020905b815481529060010190602001808311610d6057829003601f168201915b5050505050905090565b610d99610d926117ee565b8383611c7b565b5050565b6060600a6000838152602001908152602001600020805480602002602001604051908101604052809291908181526020018280548015610e3257602002820191906000526020600020905b8160009054906101000a900473ffffffffffffffffffffffffffffffffffffffff1673ffffffffffffffffffffffffffffffffffffffff1681526020019060010190808311610de8575b50505050509050919050565b610e4f610e496117ee565b836118af565b610e8e576040517f08c379a0000000000000000000000000000000000000000000000000000000008152600401610e859061327c565b60405180910390fd5b610e9a84848484611de8565b50505050565b60003373ffffffffffffffffffffffffffffffffffffffff163273ffffffffffffffffffffffffffffffffffffffff1614610f10576040517f08c379a0000000000000000000000000000000000000000000000000000000008152600401610f0790613452565b60405180910390fd5b60008311610f53576040517f08c379a0000000000000000000000000000000000000000000000000000000008152600401610f4a906134e4565b60405180910390fd5b60076000815480929190610f6690613533565b919050555060006007549050600a6000828152602001908152602001600020339080600181540180825580915050600190039060005260206000200160009091909190916101000a81548173ffffffffffffffffffffffffffffffffffffffff021916908373ffffffffffffffffffffffffffffffffffffffff160217905550836008600083815260200190815260200160002081905550826009600083815260200190815260200160002060006101000a81548160ff021916908360ff1602179055506110343382611e44565b61103e8186611e62565b8460405161104c91906135b8565b6040518091039020813373ffffffffffffffffffffffffffffffffffffffff167f85a66b9141978db9980f7e0ce3b468cebf4f7999f32b23091c5c03e798b1ba7a60405160405180910390a4809150509392505050565b60606110ae826117a3565b60006006600084815260200190815260200160002080546110ce90613085565b80601f01602080910402602001604051908101604052809291908181526020018280546110fa90613085565b80156111475780601f1061111c57610100808354040283529160200191611147565b820191906000526020600020905b81548152906001019060200180831161112a57829003601f168201915b505050505090506000611158611ed6565b905060008151141561116e5781925050506111b1565b6000825111156111a357808260405160200161118b9291906135cf565b604051602081830303815290604052925050506111b1565b6111ac84611eed565b925050505b919050565b3273ffffffffffffffffffffffffffffffffffffffff163373ffffffffffffffffffffffffffffffffffffffff1614611224576040517f08c379a000000000000000000000000000000000000000000000000000000000815260040161121b9061363f565b60405180910390fd5b61122d81610b52565b73ffffffffffffffffffffffffffffffffffffffff163373ffffffffffffffffffffffffffffffffffffffff16141561129b576040517f08c379a0000000000000000000000000000000000000000000000000000000008152600401611292906136ab565b60405180910390fd5b60006008600083815260200190815260200160002054905060006112be83610b52565b9050813414611302576040517f08c379a00000000000000000000000000000000000000000000000000000000081526004016112f99061373d565b60405180910390fd5b600a6000848152602001908152602001600020339080600181540180825580915050600190039060005260206000200160009091909190916101000a81548173ffffffffffffffffffffffffffffffffffffffff021916908373ffffffffffffffffffffffffffffffffffffffff1602179055506000600a600085815260200190815260200160002060008154811061139e5761139d6131db565b5b9060005260206000200160009054906101000a900473ffffffffffffffffffffffffffffffffffffffff169050600060646009600087815260200190815260200160002060009054906101000a900460ff1660ff16856113fe919061375d565b61140891906137e6565b90506000606460618661141b919061375d565b61142591906137e6565b905060008473ffffffffffffffffffffffffffffffffffffffff168260405161144d90613848565b60006040518083038185875af1925050503d806000811461148a576040519150601f19603f3d011682016040523d82523d6000602084013e61148f565b606091505b505090508061149d57600080fd5b60008473ffffffffffffffffffffffffffffffffffffffff16846040516114c390613848565b60006040518083038185875af1925050503d8060008114611500576040519150601f19603f3d011682016040523d82523d6000602084013e611505565b606091505b505090508061151357600080fd5b61151e86338a611944565b3373ffffffffffffffffffffffffffffffffffffffff1661153e89610b52565b73ffffffffffffffffffffffffffffffffffffffff1614611594576040517f08c379a000000000000000000000000000000000000000000000000000000000815260040161158b906138a9565b60405180910390fd5b3373ffffffffffffffffffffffffffffffffffffffff168673ffffffffffffffffffffffffffffffffffffffff167f89f5adc174562e07c9c9b1cae7109bbecb21cf9d1b2847e550042b8653c54a0e8a8a6040516115f39291906138c9565b60405180910390a35050505050505050565b600060086000838152602001908152602001600020549050919050565b6000600560008473ffffffffffffffffffffffffffffffffffffffff1673ffffffffffffffffffffffffffffffffffffffff16815260200190815260200160002060008373ffffffffffffffffffffffffffffffffffffffff1673ffffffffffffffffffffffffffffffffffffffff16815260200190815260200160002060009054906101000a900460ff16905092915050565b60003073ffffffffffffffffffffffffffffffffffffffff166370a08231836040518263ffffffff1660e01b81526004016116f191906129e2565b602060405180830381865afa15801561170e573d6000803e3d6000fd5b505050506040513d601f19601f820116820180604052508101906117329190613907565b9050919050565b60007f01ffc9a7000000000000000000000000000000000000000000000000000000007bffffffffffffffffffffffffffffffffffffffffffffffffffffffff1916827bffffffffffffffffffffffffffffffffffffffffffffffffffffffff1916149050919050565b6117ac81611f55565b6117eb576040517f08c379a00000000000000000000000000000000000000000000000000000000081526004016117e290613354565b60405180910390fd5b50565b600033905090565b816004600083815260200190815260200160002060006101000a81548173ffffffffffffffffffffffffffffffffffffffff021916908373ffffffffffffffffffffffffffffffffffffffff160217905550808273ffffffffffffffffffffffffffffffffffffffff1661186983610b52565b73ffffffffffffffffffffffffffffffffffffffff167f8c5be1e5ebec7d5bd14f71427d1e84f3dd0314c0f7b2291e5b200ac8c7c3b92560405160405180910390a45050565b6000806118bb83610b52565b90508073ffffffffffffffffffffffffffffffffffffffff168473ffffffffffffffffffffffffffffffffffffffff1614806118fd57506118fc8185611622565b5b8061193b57508373ffffffffffffffffffffffffffffffffffffffff166119238461078a565b73ffffffffffffffffffffffffffffffffffffffff16145b91505092915050565b8273ffffffffffffffffffffffffffffffffffffffff1661196482610b52565b73ffffffffffffffffffffffffffffffffffffffff16146119ba576040517f08c379a00000000000000000000000000000000000000000000000000000000081526004016119b1906139a6565b60405180910390fd5b600073ffffffffffffffffffffffffffffffffffffffff168273ffffffffffffffffffffffffffffffffffffffff161415611a2a576040517f08c379a0000000000000000000000000000000000000000000000000000000008152600401611a2190613a38565b60405180910390fd5b611a378383836001611f96565b8273ffffffffffffffffffffffffffffffffffffffff16611a5782610b52565b73ffffffffffffffffffffffffffffffffffffffff1614611aad576040517f08c379a0000000000000000000000000000000000000000000000000000000008152600401611aa4906139a6565b60405180910390fd5b6004600082815260200190815260200160002060006101000a81549073ffffffffffffffffffffffffffffffffffffffff02191690556001600360008573ffffffffffffffffffffffffffffffffffffffff1673ffffffffffffffffffffffffffffffffffffffff168152602001908152602001600020600082825403925050819055506001600360008473ffffffffffffffffffffffffffffffffffffffff1673ffffffffffffffffffffffffffffffffffffffff16815260200190815260200160002060008282540192505081905550816002600083815260200190815260200160002060006101000a81548173ffffffffffffffffffffffffffffffffffffffff021916908373ffffffffffffffffffffffffffffffffffffffff160217905550808273ffffffffffffffffffffffffffffffffffffffff168473ffffffffffffffffffffffffffffffffffffffff167fddf252ad1be2c89b69c2b068fc378daa952ba7f163c4a11628f55a4df523b3ef60405160405180910390a4611c3983838360016120bc565b505050565b60006002600083815260200190815260200160002060009054906101000a900473ffffffffffffffffffffffffffffffffffffffff169050919050565b8173ffffffffffffffffffffffffffffffffffffffff168373ffffffffffffffffffffffffffffffffffffffff161415611cea576040517f08c379a0000000000000000000000000000000000000000000000000000000008152600401611ce190613aa4565b60405180910390fd5b80600560008573ffffffffffffffffffffffffffffffffffffffff1673ffffffffffffffffffffffffffffffffffffffff16815260200190815260200160002060008473ffffffffffffffffffffffffffffffffffffffff1673ffffffffffffffffffffffffffffffffffffffff16815260200190815260200160002060006101000a81548160ff0219169083151502179055508173ffffffffffffffffffffffffffffffffffffffff168373ffffffffffffffffffffffffffffffffffffffff167f17307eab39ab6107e8899845ad3d59bd9653f200f220920489ca2b5937696c3183604051611ddb9190612868565b60405180910390a3505050565b611df3848484611944565b611dff848484846120c2565b611e3e576040517f08c379a0000000000000000000000000000000000000000000000000000000008152600401611e3590613b36565b60405180910390fd5b50505050565b611e5e82826040518060200160405280600081525061224a565b5050565b611e6b82611f55565b611eaa576040517f08c379a0000000000000000000000000000000000000000000000000000000008152600401611ea190613bc8565b60405180910390fd5b80600660008481526020019081526020016000209080519060200190611ed1929190612711565b505050565b606060405180602001604052806000815250905090565b6060611ef8826117a3565b6000611f02611ed6565b90506000815111611f225760405180602001604052806000815250611f4d565b80611f2c846122a5565b604051602001611f3d9291906135cf565b6040516020818303038152906040525b915050919050565b60008073ffffffffffffffffffffffffffffffffffffffff16611f7783611c3e565b73ffffffffffffffffffffffffffffffffffffffff1614159050919050565b60018111156120b657600073ffffffffffffffffffffffffffffffffffffffff168473ffffffffffffffffffffffffffffffffffffffff161461202a5780600360008673ffffffffffffffffffffffffffffffffffffffff1673ffffffffffffffffffffffffffffffffffffffff16815260200190815260200160002060008282546120229190613be8565b925050819055505b600073ffffffffffffffffffffffffffffffffffffffff168373ffffffffffffffffffffffffffffffffffffffff16146120b55780600360008573ffffffffffffffffffffffffffffffffffffffff1673ffffffffffffffffffffffffffffffffffffffff16815260200190815260200160002060008282546120ad9190613c1c565b925050819055505b5b50505050565b50505050565b60006120e38473ffffffffffffffffffffffffffffffffffffffff1661237d565b1561223d578373ffffffffffffffffffffffffffffffffffffffff1663150b7a0261210c6117ee565b8786866040518563ffffffff1660e01b815260040161212e9493929190613cc7565b6020604051808303816000875af192505050801561216a57506040513d601f19601f820116820180604052508101906121679190613d28565b60015b6121ed573d806000811461219a576040519150601f19603f3d011682016040523d82523d6000602084013e61219f565b606091505b506000815114156121e5576040517f08c379a00000000000000000000000000000000000000000000000000000000081526004016121dc90613b36565b60405180910390fd5b805181602001fd5b63150b7a0260e01b7bffffffffffffffffffffffffffffffffffffffffffffffffffffffff1916817bffffffffffffffffffffffffffffffffffffffffffffffffffffffff191614915050612242565b600190505b949350505050565b61225483836123a0565b61226160008484846120c2565b6122a0576040517f08c379a000000000000000000000000000000000000000000000000000000000815260040161229790613b36565b60405180910390fd5b505050565b6060600060016122b4846125be565b01905060008167ffffffffffffffff8111156122d3576122d2612d2c565b5b6040519080825280601f01601f1916602001820160405280156123055781602001600182028036833780820191505090505b509050600082602001820190505b600115612372578080600190039150507f3031323334353637383961626364656600000000000000000000000000000000600a86061a8153600a858161235c5761235b6137b7565b5b049450600085141561236d57612372565b612313565b819350505050919050565b6000808273ffffffffffffffffffffffffffffffffffffffff163b119050919050565b600073ffffffffffffffffffffffffffffffffffffffff168273ffffffffffffffffffffffffffffffffffffffff161415612410576040517f08c379a000000000000000000000000000000000000000000000000000000000815260040161240790613da1565b60405180910390fd5b61241981611f55565b15612459576040517f08c379a000000000000000000000000000000000000000000000000000000000815260040161245090613e0d565b60405180910390fd5b612467600083836001611f96565b61247081611f55565b156124b0576040517f08c379a00000000000000000000000000000000000000000000000000000000081526004016124a790613e0d565b60405180910390fd5b6001600360008473ffffffffffffffffffffffffffffffffffffffff1673ffffffffffffffffffffffffffffffffffffffff16815260200190815260200160002060008282540192505081905550816002600083815260200190815260200160002060006101000a81548173ffffffffffffffffffffffffffffffffffffffff021916908373ffffffffffffffffffffffffffffffffffffffff160217905550808273ffffffffffffffffffffffffffffffffffffffff16600073ffffffffffffffffffffffffffffffffffffffff167fddf252ad1be2c89b69c2b068fc378daa952ba7f163c4a11628f55a4df523b3ef60405160405180910390a46125ba6000838360016120bc565b5050565b600080600090507a184f03e93ff9f4daa797ed6e38ed64bf6a1f010000000000000000831061261c577a184f03e93ff9f4daa797ed6e38ed64bf6a1f0100000000000000008381612612576126116137b7565b5b0492506040810190505b6d04ee2d6d415b85acef81000000008310612659576d04ee2d6d415b85acef8100000000838161264f5761264e6137b7565b5b0492506020810190505b662386f26fc10000831061268857662386f26fc10000838161267e5761267d6137b7565b5b0492506010810190505b6305f5e10083106126b1576305f5e10083816126a7576126a66137b7565b5b0492506008810190505b61271083106126d65761271083816126cc576126cb6137b7565b5b0492506004810190505b606483106126f957606483816126ef576126ee6137b7565b5b0492506002810190505b600a8310612708576001810190505b80915050919050565b82805461271d90613085565b90600052602060002090601f01602090048101928261273f5760008555612786565b82601f1061275857805160ff1916838001178555612786565b82800160010185558215612786579182015b8281111561278557825182559160200191906001019061276a565b5b5090506127939190612797565b5090565b5b808211156127b0576000816000905550600101612798565b5090565b6000604051905090565b600080fd5b600080fd5b60007fffffffff0000000000000000000000000000000000000000000000000000000082169050919050565b6127fd816127c8565b811461280857600080fd5b50565b60008135905061281a816127f4565b92915050565b600060208284031215612836576128356127be565b5b60006128448482850161280b565b91505092915050565b60008115159050919050565b6128628161284d565b82525050565b600060208201905061287d6000830184612859565b92915050565b600081519050919050565b600082825260208201905092915050565b60005b838110156128bd5780820151818401526020810190506128a2565b838111156128cc576000848401525b50505050565b6000601f19601f8301169050919050565b60006128ee82612883565b6128f8818561288e565b935061290881856020860161289f565b612911816128d2565b840191505092915050565b6000602082019050818103600083015261293681846128e3565b905092915050565b6000819050919050565b6129518161293e565b811461295c57600080fd5b50565b60008135905061296e81612948565b92915050565b60006020828403121561298a576129896127be565b5b60006129988482850161295f565b91505092915050565b600073ffffffffffffffffffffffffffffffffffffffff82169050919050565b60006129cc826129a1565b9050919050565b6129dc816129c1565b82525050565b60006020820190506129f760008301846129d3565b92915050565b612a06816129c1565b8114612a1157600080fd5b50565b600081359050612a23816129fd565b92915050565b60008060408385031215612a4057612a3f6127be565b5b6000612a4e85828601612a14565b9250506020612a5f8582860161295f565b9150509250929050565b612a728161293e565b82525050565b6000608082019050612a8d60008301876129d3565b612a9a60208301866129d3565b612aa76040830185612a69565b8181036060830152612ab981846128e3565b905095945050505050565b600080600060608486031215612add57612adc6127be565b5b6000612aeb86828701612a14565b9350506020612afc86828701612a14565b9250506040612b0d8682870161295f565b9150509250925092565b600060ff82169050919050565b612b2d81612b17565b82525050565b6000602082019050612b486000830184612b24565b92915050565b60008060408385031215612b6557612b646127be565b5b6000612b738582860161295f565b9250506020612b848582860161295f565b9150509250929050565b600060208284031215612ba457612ba36127be565b5b6000612bb284828501612a14565b91505092915050565b6000602082019050612bd06000830184612a69565b92915050565b612bdf8161284d565b8114612bea57600080fd5b50565b600081359050612bfc81612bd6565b92915050565b60008060408385031215612c1957612c186127be565b5b6000612c2785828601612a14565b9250506020612c3885828601612bed565b9150509250929050565b600081519050919050565b600082825260208201905092915050565b6000819050602082019050919050565b612c77816129c1565b82525050565b6000612c898383612c6e565b60208301905092915050565b6000602082019050919050565b6000612cad82612c42565b612cb78185612c4d565b9350612cc283612c5e565b8060005b83811015612cf3578151612cda8882612c7d565b9750612ce583612c95565b925050600181019050612cc6565b5085935050505092915050565b60006020820190508181036000830152612d1a8184612ca2565b905092915050565b600080fd5b600080fd5b7f4e487b7100000000000000000000000000000000000000000000000000000000600052604160045260246000fd5b612d64826128d2565b810181811067ffffffffffffffff82111715612d8357612d82612d2c565b5b80604052505050565b6000612d966127b4565b9050612da28282612d5b565b919050565b600067ffffffffffffffff821115612dc257612dc1612d2c565b5b612dcb826128d2565b9050602081019050919050565b82818337600083830152505050565b6000612dfa612df584612da7565b612d8c565b905082815260208101848484011115612e1657612e15612d27565b5b612e21848285612dd8565b509392505050565b600082601f830112612e3e57612e3d612d22565b5b8135612e4e848260208601612de7565b91505092915050565b60008060008060808587031215612e7157612e706127be565b5b6000612e7f87828801612a14565b9450506020612e9087828801612a14565b9350506040612ea18782880161295f565b925050606085013567ffffffffffffffff811115612ec257612ec16127c3565b5b612ece87828801612e29565b91505092959194509250565b600067ffffffffffffffff821115612ef557612ef4612d2c565b5b612efe826128d2565b9050602081019050919050565b6000612f1e612f1984612eda565b612d8c565b905082815260208101848484011115612f3a57612f39612d27565b5b612f45848285612dd8565b509392505050565b600082601f830112612f6257612f61612d22565b5b8135612f72848260208601612f0b565b91505092915050565b612f8481612b17565b8114612f8f57600080fd5b50565b600081359050612fa181612f7b565b92915050565b600080600060608486031215612fc057612fbf6127be565b5b600084013567ffffffffffffffff811115612fde57612fdd6127c3565b5b612fea86828701612f4d565b9350506020612ffb8682870161295f565b925050604061300c86828701612f92565b9150509250925092565b6000806040838503121561302d5761302c6127be565b5b600061303b85828601612a14565b925050602061304c85828601612a14565b9150509250929050565b7f4e487b7100000000000000000000000000000000000000000000000000000000600052602260045260246000fd5b6000600282049050600182168061309d57607f821691505b602082108114156130b1576130b0613056565b5b50919050565b7f4552433732313a20617070726f76616c20746f2063757272656e74206f776e6560008201527f7200000000000000000000000000000000000000000000000000000000000000602082015250565b600061311360218361288e565b915061311e826130b7565b604082019050919050565b6000602082019050818103600083015261314281613106565b9050919050565b7f4552433732313a20617070726f76652063616c6c6572206973206e6f7420746f60008201527f6b656e206f776e6572206f7220617070726f76656420666f7220616c6c000000602082015250565b60006131a5603d8361288e565b91506131b082613149565b604082019050919050565b600060208201905081810360008301526131d481613198565b9050919050565b7f4e487b7100000000000000000000000000000000000000000000000000000000600052603260045260246000fd5b7f4552433732313a2063616c6c6572206973206e6f7420746f6b656e206f776e6560008201527f72206f7220617070726f76656400000000000000000000000000000000000000602082015250565b6000613266602d8361288e565b91506132718261320a565b604082019050919050565b6000602082019050818103600083015261329581613259565b9050919050565b7f4f776e657220556e617574686f72697365640000000000000000000000000000600082015250565b60006132d260128361288e565b91506132dd8261329c565b602082019050919050565b60006020820190508181036000830152613301816132c5565b9050919050565b7f4552433732313a20696e76616c696420746f6b656e2049440000000000000000600082015250565b600061333e60188361288e565b915061334982613308565b602082019050919050565b6000602082019050818103600083015261336d81613331565b9050919050565b7f4552433732313a2061646472657373207a65726f206973206e6f74206120766160008201527f6c6964206f776e65720000000000000000000000000000000000000000000000602082015250565b60006133d060298361288e565b91506133db82613374565b604082019050919050565b600060208201905081810360008301526133ff816133c3565b9050919050565b7f6f6e6c7920627920454f412063616e206d696e74204e46540000000000000000600082015250565b600061343c60188361288e565b915061344782613406565b602082019050919050565b6000602082019050818103600083015261346b8161342f565b9050919050565b7f73686f756c6420626520736f6d652076616c7561626c65207072696365206f6660008201527f206e667400000000000000000000000000000000000000000000000000000000602082015250565b60006134ce60248361288e565b91506134d982613472565b604082019050919050565b600060208201905081810360008301526134fd816134c1565b9050919050565b7f4e487b7100000000000000000000000000000000000000000000000000000000600052601160045260246000fd5b600061353e8261293e565b91507fffffffffffffffffffffffffffffffffffffffffffffffffffffffffffffffff82141561357157613570613504565b5b600182019050919050565b600081905092915050565b600061359282612883565b61359c818561357c565b93506135ac81856020860161289f565b80840191505092915050565b60006135c48284613587565b915081905092915050565b60006135db8285613587565b91506135e78284613587565b91508190509392505050565b7f6f6e6c7920454f412063616e20696e7472656374000000000000000000000000600082015250565b600061362960148361288e565b9150613634826135f3565b602082019050919050565b600060208201905081810360008301526136588161361c565b9050919050565b7f796f752063616e277420627579206f776e206e66740000000000000000000000600082015250565b600061369560158361288e565b91506136a08261365f565b602082019050919050565b600060208201905081810360008301526136c481613688565b9050919050565b7f506c65617365207375626d6974207468652061736b696e67207072696365206960008201527f6e206f7264657220746f20636f6d706c65746520746865207075726368617365602082015250565b600061372760408361288e565b9150613732826136cb565b604082019050919050565b600060208201905081810360008301526137568161371a565b9050919050565b60006137688261293e565b91506137738361293e565b9250817fffffffffffffffffffffffffffffffffffffffffffffffffffffffffffffffff04831182151516156137ac576137ab613504565b5b828202905092915050565b7f4e487b7100000000000000000000000000000000000000000000000000000000600052601260045260246000fd5b60006137f18261293e565b91506137fc8361293e565b92508261380c5761380b6137b7565b5b828204905092915050565b600081905092915050565b50565b6000613832600083613817565b915061383d82613822565b600082019050919050565b600061385382613825565b9150819050919050565b7f6e6f74207472616e736672656400000000000000000000000000000000000000600082015250565b6000613893600d8361288e565b915061389e8261385d565b602082019050919050565b600060208201905081810360008301526138c281613886565b9050919050565b60006040820190506138de6000830185612a69565b6138eb6020830184612a69565b9392505050565b60008151905061390181612948565b92915050565b60006020828403121561391d5761391c6127be565b5b600061392b848285016138f2565b91505092915050565b7f4552433732313a207472616e736665722066726f6d20696e636f72726563742060008201527f6f776e6572000000000000000000000000000000000000000000000000000000602082015250565b600061399060258361288e565b915061399b82613934565b604082019050919050565b600060208201905081810360008301526139bf81613983565b9050919050565b7f4552433732313a207472616e7366657220746f20746865207a65726f2061646460008201527f7265737300000000000000000000000000000000000000000000000000000000602082015250565b6000613a2260248361288e565b9150613a2d826139c6565b604082019050919050565b60006020820190508181036000830152613a5181613a15565b9050919050565b7f4552433732313a20617070726f766520746f2063616c6c657200000000000000600082015250565b6000613a8e60198361288e565b9150613a9982613a58565b602082019050919050565b60006020820190508181036000830152613abd81613a81565b9050919050565b7f4552433732313a207472616e7366657220746f206e6f6e20455243373231526560008201527f63656976657220696d706c656d656e7465720000000000000000000000000000602082015250565b6000613b2060328361288e565b9150613b2b82613ac4565b604082019050919050565b60006020820190508181036000830152613b4f81613b13565b9050919050565b7f45524337323155524953746f726167653a2055524920736574206f66206e6f6e60008201527f6578697374656e7420746f6b656e000000000000000000000000000000000000602082015250565b6000613bb2602e8361288e565b9150613bbd82613b56565b604082019050919050565b60006020820190508181036000830152613be181613ba5565b9050919050565b6000613bf38261293e565b9150613bfe8361293e565b925082821015613c1157613c10613504565b5b828203905092915050565b6000613c278261293e565b9150613c328361293e565b9250827fffffffffffffffffffffffffffffffffffffffffffffffffffffffffffffffff03821115613c6757613c66613504565b5b828201905092915050565b600081519050919050565b600082825260208201905092915050565b6000613c9982613c72565b613ca38185613c7d565b9350613cb381856020860161289f565b613cbc816128d2565b840191505092915050565b6000608082019050613cdc60008301876129d3565b613ce960208301866129d3565b613cf66040830185612a69565b8181036060830152613d088184613c8e565b905095945050505050565b600081519050613d22816127f4565b92915050565b600060208284031215613d3e57613d3d6127be565b5b6000613d4c84828501613d13565b91505092915050565b7f4552433732313a206d696e7420746f20746865207a65726f2061646472657373600082015250565b6000613d8b60208361288e565b9150613d9682613d55565b602082019050919050565b60006020820190508181036000830152613dba81613d7e565b9050919050565b7f4552433732313a20746f6b656e20616c7265616479206d696e74656400000000600082015250565b6000613df7601c8361288e565b9150613e0282613dc1565b602082019050919050565b60006020820190508181036000830152613e2681613dea565b905091905056fea2646970667358221220d9af939ca4a17e0cbb7a3a5a35216ab0f44e86acca0d62320daf107cb756b95564736f6c634300080a0033",
  "linkReferences": {},
  "deployedLinkReferences": {}
}